:020000040800F2
:100000000809002079020008D91D0008AF1C00086B
:10001000811D0008711B0008FB3100080000000072
:10002000000000000000000000000000892400081B
:10003000891B000800000000392300089D250008E6
:10004000930200089302000893020008930200083C
:10005000930200089302000893020008930200082C
:10006000930200089302000893020008930200081C
:10007000930200089302000893020008930200080C
:1000800093020008930200089302000893020008FC
:1000900093020008930200089302000893020008EC
:1000A00093020008930200089302000893020008DC
:1000B00093020008930200089302000893020008CC
:1000C00093020008930200089302000893020008BC
:1000D00093020008692F0008F12F0008930200081E
:1000E000930200089302000893020008930200089C
:1000F000930200089302000893020008930200088C
:10010000930200089302000893020008930200087B
:100110009302000893020008012A000893020008D5
:10012000930200089302000893020008930200085B
:1001300000F002F800F090F80AA090E8000C824469
:100140008344AAF10107DA4501D100F085F8AFF246
:10015000090EBAE80F0013F0010F18BFFB1A43F0A5
:1001600001031847A8410000C8410000103A24BF0D
:1001700078C878C1FAD8520724BF30C830C144BF0C
:1001800004680C607047000000230024002500264E
:10019000103A28BF78C1FBD8520728BF30C148BFEA
:1001A0000B6070476E2900F05D81702900F09F821E
:1001B000662903F03085652903F02D85672903F052
:1001C0002A85612903F0298503681B0A28BF41F0AD
:1001D0008001692900F00A81642900F007817529EE
:1001E00000F004816F2900F02C82782900F06B82E6
:1001F000E92900F0C781E42900F0C481F52900F065
:10020000C181EF2900F02982F82900F06A82036891
:10021000DB0928BF41F08001632900F06D87732955
:1002200000F07287E32900F07D87F32900F08287D0
:10023000002070471FB500F0CFFF04000020002110
:1002400003F07AF9401C60600020002103F05EF9A1
:10025000E0601FBD10B510BD00F090FF1146FFF724
:10026000E9FF03F00BF801F06DF803B4FFF7F2FFBC
:1002700003BC02F0DFFF000009488047094800473F
:10028000FEE7FEE7FEE7FEE7FEE7FEE7FEE7FEE746
:10029000FEE7FEE704480549054A064B70470000A3
:1002A000A1250008310100080803002008090020EA
:1002B0000805002008050020704700001CB50C460A
:1002C000064B7B4469460090204600F0E4F8044663
:1002D0000020694600F0F2F820461CBDF70100003E
:1002E00010B5431C02E010F8011B71B18107FAD16F
:1002F0004FF0013202C88C1A8C4314EAC211F9D0B3
:10030000C01A0A0603D0C01E10BDC01A10BD0A04D0
:1003100001D0801E10BD0902FCD0401E10BD7047E8
:1003200070477047704770B5044685690068C1061C
:1003300001D5302600E02026C00707D070BDD4E9E3
:10034000012130469047206A401C20626D1EF6D580
:1003500070BD70B5044685690078C00707D170BDCF
:10036000D4E9012120209047206A401C20626D1EA4
:10037000F6D570BD09684A0501D540B27047C90578
:10038000FCD500B2704709684A0501D5C0B2704774
:10039000C905FCD580B2704770B50C460546012AE8
:1003A00005D02878800600D5EA69002302E0012301
:1003B00005E05B1C934202D2E05C0028F9D1A869F9
:1003C000E618C01AA861286A184428622846FFF770
:1003D000AAFF04E0D5E9012114F8010B9047B442CB
:1003E000F8D32846FFF7B5FF70BD00002DE9F041B6
:1003F0000646002410687529314616A510D0FFF76F
:10040000B9FF002802DA404213A507E031688A07E5
:1004100001D512A502E0490704D511A5012401E088
:10042000FFF7B1FF00210A2206F1240709E0B0FB23
:10043000F2FCB0FBF2F302FB1C003030785418469B
:10044000491C0028F3D123462A463046BDE8F04136
:1004500000F061BA000000002D0000002B00000039
:100460002000000011680268006A530501D5087079
:100470000AE0D30501D5088006E0130603D5C217AC
:10048000C1E9000200E008600120704701694A1CD0
:1004900002610878704700B58FB0CDE901310021C5
:1004A000059105497944CDE903101146684600F0ED
:1004B00029F90FB000BD0000E5FFFFFF0A6802F850
:1004C000010B0A60704700002DE9FF5F15468A4660
:1004D0000446DFF8AC80F8440027D8E900103E4617
:1004E000CDE9001010E03AF816106A4602A800F0B4
:1004F00025FE411C07D02178890603D5E269391809
:1005000091420DD80744761C2078800602D5E06918
:10051000B84205DDAE42E6DB3AF816000028E2D12B
:10052000A069C01BA0612046FFF7FDFED8E90010BE
:10053000CDE90010002017E03AF818106A4602A82A
:1005400000F0FCFDB0F1FF3F81460BD000250DF11E
:10055000080B05E0D4E901211BF8050090476D1C4C
:100560004D45F7D308F10100B0428046E4DB206A34
:10057000384420622046FFF7ECFEBDE8FF9F0000F4
:10058000363D00002DE9F0418046D21D22F00702E1
:100590000025D2E90002F52915A614D0011E72F13A
:1005A000000106DA0023D0EB030063EB020211A680
:1005B00008E0D8F800108B0701D50FA602E0490724
:1005C00001D50EA601251146002408F1240704E0F8
:1005D00000F05CF930323A55641C50EA0102F7D160
:1005E0002B46324621464046BDE8F04100F093B923
:1005F000000000002D0000002B0000002000000083
:1006000030B4002100F1240408E002F00705D2080C
:10061000303542EA4372DB086554491C52EA03054F
:10062000F3D10468002310A2250707D5A40600D43F
:1006300021B1C46901230DA2641EC46130BC00F065
:100640006AB910B5044621461068FFF79CFE0246C1
:100650002046BDE810400023D2E7D21D22F007015A
:10066000D1E90023CCE700000000000030000000CA
:10067000F0B40D460188090502D5214C7C4402E006
:100680001F4C7C440E34002100F1240608E002F0E7
:100690000F071209E75D42EA03721B097754491CF0
:1006A00052EA0307F3D102780023120704D5702D14
:1006B00006D009B1022311342246F0BC00F02BB958
:1006C00001231034F8E770B504460D462146106842
:1006D000FFF759FE024629462046BDE87040002338
:1006E000C6E7D21D22F00703D3E90023C0E7036861
:1006F000126843F0200303600823C3610023B7E7B7
:10070000983B00002DE9F05F894604464FF0000A4F
:10071000DFF874B1FB44C0F820A02046E1688847A8
:10072000002874D0252806D0D4E901219047206AFA
:10073000401C2062F1E700265F462046E1688847BA
:100740002028054607DB312D05D2781910F8200C3A
:1007500008B10643F1E7B00701D526F00406C4F856
:100760001CA00027C4F818A02A2D09D0284602F0A2
:100770005AFD38B304EB8708303DC8F8185019E02B
:1007800059F8041B204604EB87029161E168884711
:10079000012F054618D1E069002820DA26F020064E
:1007A0001DE0D8F8180000EB800005EB4000303861
:1007B000C8F818002046E1688847054602F033FD76
:1007C0000028EED1012F0AD02E2D08D12046E16855
:1007D00088477F1C0546022F46F02006C4DBA0692F
:1007E000002803DA404246F00106A061F00701D07C
:1007F00026F010066C2D0BD0682D09D04C2D39D069
:100800006A2D35D0742D35D07A2D33D016E038E0EE
:10081000E1682F4620468847B842054609D16C2F2B
:1008200026D04FF48060E16806432046884705469D
:1008300004E06C2F1AD04FF4807006430DB3A5F17D
:100840004100192802D8203546F400664A46294658
:10085000204626604E46FFF7A5FC80B101280BD04C
:10086000F61D26F0070000F1080956E74020E4E7EE
:100870008020D8E70020D6E706F104094DE7284696
:1008800052E7206ABDE8F09F283B000030B5B0F188
:100890000A024FEA900E71F100034EEA817EB0EB3E
:1008A0000E0061EB91014FEA101E4EEA017E10EB43
:1008B0000E0041EB11114FEA102E4EEA016E10EBC3
:1008C0000E0041EB11214FEA104E4EEA014E10EBA3
:1008D0000E0041EB1141401841F100014FEAD000F8
:1008E00040EA41704FEAD10110EB80054FEA8104E4
:1008F00044EA907444EB01046D1944EB0404521B68
:10090000A3414FF0000348BF0A3200D530BD401C60
:1009100041F1000130BD2DE9F0470D469946924660
:10092000044600F124080168880604D5E06921F036
:100930001001216000E00120A84201DD471B00E01A
:100940000027A1697A1902EB0900081AA061207832
:10095000C00602D42046FFF7E6FC002608E0D4E9F2
:1009600001211AF806009047206A401C761C20627C
:100970004E45F4DB2078C0060AD52046FFF7D3FCAD
:1009800006E0D4E9012130209047206A401C206213
:10099000381EA7F10107F4DC07E0D4E9012118F8BB
:1009A00005009047206A401C2062281EA5F1010521
:1009B000F3DC2046FFF7CDFC2078000602D50220AC
:1009C000BDE8F0870120FBE770472DE9FF4F0C469B
:1009D0001E464FF0FF378BB0D2E90001DDF8608092
:1009E0000A908A46C1F30A5505B93D4600210846DA
:1009F0004FF00000BAF1000F00F4400005DA00EB00
:100A000080004FF4400101EA50004FEA9059B9F1DB
:100A1000010F00DDB9460A9850EA4A000ED044F6AC
:100A20001050A5F2FF3545432F14B8F1000F1ED02A
:100A30007542291E1EDDC9F100021CE0B8F1010F4C
:100A40004FF0000001D0302103E0F24305E02154D3
:100A5000401CB042FBDB30460022002121540B99A0
:100A6000C1F80880C1E900200FB0BDE8F08FBD1BC0
:100A70006D1CDEE74A4600DA694206A800F0F0FB8A
:100A800006AB93E8070003AB83E8070050460A99DA
:100A900000F0A6FC8DE80700A0F500501F3800907C
:100AA0000398002D0ADD42F21F014A460844002344
:100AB00003A90390684600F00FFF09E0A0F500507D
:100AC0004A461F38002303A90390684600F019FF27
:100AD0008DE807000004000C03D04FF0FF30410800
:100AE00000E01046B8F1000F03D000220092154636
:100AF0001EE0751E05D4FFF7C9FE303262556D1E2B
:100B0000F9D5B3460122084302D000227F1C04E03D
:100B10002078302801D100227F1E002A099784D036
:100B20001DE0112D07DAFFF7B1FE303262556D1C62
:100B300050EA0102F5D1084302D00098C8B10EE096
:100B40000021681E05E0235C625C63542254401E51
:100B5000491C8142F7DBAB46A81B401E09900020D0
:100B600004F80B000B98099AC0F80880C0E9002B24
:100B70007AE711264FF0000857E72DE9F04F884635
:100B80000446D21D22F0070191B0D1E90001CDE960
:100B90000A0102F034FB02460B98C00F01D02D2051
:100BA00007E02068810701D52B2002E0202101EA1F
:100BB000C000032A099001D0072A05DB03464146FD
:100BC000204600F00DFB0BE12078800601D5E0699E
:100BD00000E00620B8F1650F814606D0B8F1660F37
:100BE00018D0B8F1670F70D131E00020B9F1110FC2
:100BF000009001DB112301E009F101030AAA01A918
:100C00000CA8FFF7E2FEDDE90C70002609F10105F2
:100C1000834647E001204B4600904FF000470AAA68
:100C200001A90CA8FFF7D1FEDDE90DB00C995D46D6
:100C3000002610B909F101000D18B9EB050003D425
:100C4000C0F1FF3609F10105A5EB09002BE0B9F170
:100C5000010F01DA4FF001090020B9F1110F0090E6
:100C6000484601DD112300E003460AAA01A90CA8A9
:100C7000FFF7ABFEDDE90C704D4600268346207879
:100C800000070AD4AB4500DA5D4601A8012D04DD5A
:100C9000411911F8011C302907D04F4502DA17F12C
:100CA000040F04DA012082460FE06D1EEEE7002FEC
:100CB00002DCED1B3E4403E0781CA84200DD7D1CF5
:100CC000B81B00F1010A4FF000472078000703D459
:100CD000AA4501DB4FF0FF3A0021B7F1004F0DF1BB
:100CE00043088DF8431024D002202B23002F01DA73
:100CF0007F422D230A21021EA0F1010000DC5FB11A
:100D000097FBF1FC97FBF1F201FB1C7C17460CF101
:100D1000300C08F801CDEEE7A8F10100037021883E
:100D2000090501D5452100E06521A0F1010800F881
:100D3000011C09980FA9A1EB0807FF1D00B10120B4
:100D4000411901EBEA70A1693844081A401EA061FC
:100D50002078C00602D42046FFF7E5FA099828B1AA
:100D6000D4E901219047206A401C20622078C00607
:100D700022D52046FFF7D7FA1EE0002E04DBB3454C
:100D800002DD01A8805D00E03020D4E90121904718
:100D9000206A401C2062761CAAF101005FEA000A6A
:100DA0000AD100F019FAC0680168405CD4E9012159
:100DB0009047206A401C2062281EA5F10105DCDC5A
:100DC00007E0D4E9012118F8010B9047206A401C84
:100DD0002062381EA7F10107F3DC2046FFF7B9FABD
:100DE000032011B041E600002DE9F04F04460D4606
:100DF000D21D22F0070089B0D0E900974846394655
:100E000002F0FDF90246F80F01D02D2307E020681B
:100E1000810701D52B2302E0202101EAC0038DF8D0
:100E200020300BB1012000E00020032A824601D0CF
:100E3000072A04DB2946204600F0D2F93FE120785A
:100E4000800601D40D2500E0E569C7F30A560D2D93
:100E500049DA00214FEA175B08464FF00000002FE7
:100E600000F4400007DA00EB80004FF4400100EB93
:100E7000D07001EA60008115012901DD4FF0FF31DA
:100E800000224FEA850CBCF1180F06D31346ACF1D3
:100E900018004FF08052C24003E04FF4801323FA51
:100EA0000CF30CF10C0CBCF1200F04D3ACF1200CB2
:100EB00009FA0CF001E007FA0CF000294FF00048A5
:100EC00001DD18B90FE00ED140450CD319EB020932
:100ED0005F4121B9404502D19F4329EA0209BBEB9A
:100EE000175F00D0761C2088000502D57B48784427
:100EF00002E07A487844193808AA302302F80A3008
:100F0000037C0AF10101002E0AF1020A53546A46D9
:100F100002DC4FF0300101E04FF031014FF00108E9
:100F20008DF8001002D0A6F2FF3603E059EA47011F
:100F300000D06B4E002D02DC2178090704D54FF05C
:100F400002082E218DF80110C44600210BE0C7F3E2
:100F500003433F01C35C491C6D1E02F8083005299C
:100F600008F1010801DA002DF1DC00210CE000EBB2
:100F70001973491C1B786D1E082902F808304FEAC6
:100F8000091908F1010801DA002DF0DC21688B064F
:100F900002D516E0A8F10108E04505DD02EB0803E3
:100FA00013F8013C302BF5D0B8F1000F09DD02EB4E
:100FB000080313F8013C2E2B03D1090701D4A8F133
:100FC0000108002D05DD3E2102F808106D1E08F114
:100FD0000108407C002E02F8080008F1010804DA3C
:100FE0002D20764202F8080002E02B2002F80800CB
:100FF0000A214FF47A70864208F101080BDB96FB58
:10100000F0F3303302F8083096FBF0F308F10108F2
:1010100000FB136601E0642E0CDB642096FBF0F30A
:10102000303302F8083096FBF0F308F1010800FBBA
:10103000136601E00A2E06DB96FBF1F0303002F871
:10104000080008F1010896FBF1F001FB1060303058
:1010500002F80800A16908F1010808EB050202EB9B
:101060000A00081AA0612078C00602D42046FFF7C3
:101070005AF9216A08AE01EB0A00206204E0D4E9C3
:10108000012116F8010B9047BAF1010AF7D2207836
:10109000C00602D52046FFF746F96E4609E016F86D
:1010A000010B3E280FD0D4E901219047206A401C53
:1010B0002062B8F10108F2D22046FFF74AF909B0E0
:1010C0000320BDE8F08F206A2844206203E0D4E9C1
:1010D0000121302090476D1EEBD3F8E772330000FA
:1010E00002FCFFFF10B5436913B1AFF3008001E0CC
:1010F000FFF752F9012010BD127800F124010A70A7
:1011000000224A700122EDE711684FF0FF32E9E753
:1011100010B5436913B1AFF3008001E0FFF7D4F9D4
:10112000012010BD128800F1240182840022C284B3
:101130000122EDE711684FF0FF32E9E770B516467E
:101140000C46054600F040F8036893F801010128B9
:1011500006D0FF2C0FD8185D68B101202C7070BD2F
:10116000D3F807013246214603F207130344284609
:10117000BDE8704018474FF0FF3070BD754600F075
:10118000EBF8AE4605006946534620F00700854659
:1011900018B020B5FFF77EF8BDE820404FF00006FC
:1011A0004FF000074FF000084FF0000B21F007014F
:1011B000AC46ACE8C009ACE8C009ACE8C009ACE892
:1011C000C0098D467047000010B500F005F8001DFD
:1011D00010BD00BF6523000000487047C802002012
:1011E0002DE9F0411F46044603260168072A01F451
:1011F000006004DB08B116A505E016A503E008B100
:1012000015A500E015A521F010002060A069C01E02
:10121000A0610FB1401EA0612046FFF784F84FB1D6
:10122000D4E9012138469047206A401C2062C01C46
:10123000206206E0206AFAE7D4E9012115F8010BE3
:101240009047761EF8D22046FFF783F8BDE8F0817C
:101250004E414E006E616E00494E4600696E66005A
:101260002DE9F047814616468AB0354878440DC8C6
:101270008DE80D0032487844801C03AC0DC884E82A
:101280000D0041F69B300844372190FBF1F290FBB2
:10129000F1F5A5F1800501FB12041B3C02D5644267
:1012A000012000E00020DFF898A080460027FA44E3
:1012B000AAF1BE0A0EE0E0070AD03246684607EB04
:1012C000470101230AEB810100F01BFB8DE80700B9
:1012D00064107F1C002CEED1194F7F44AE3F19E003
:1012E000E80715D007EB04100DF1180A90E80E007E
:1012F0008AE80E00C068F04201D198190890324681
:10130000012306A903A800F0FCFA03AB83E8070059
:101310006D10641C002DE3D14FF001033246694685
:10132000B8F1000F03A802D000F0D6FA01E000F0F7
:10133000E8FAC9E90001C9F808200AB0BDE8F08759
:101340008430000010B50446AFF300802046BDE8AD
:101350001040FEF78ABF000000487047A802002036
:101360004FF0013C50F8042B51F8043B9A4221D134
:10137000A2EB0C03934313EACC1317D150F8042BC0
:1013800051F8043B9A4215D1A2EB0C03934313EAA4
:10139000CC130BD150F8042B51F8043B9A4209D1DD
:1013A000A2EB0C03934313EACC13DBD04FF0000005
:1013B000704700BFD01A01BAB1FA81F101F01801EB
:1013C00022FA01F0CB40C1F12001DBB2C0B2C01A59
:1013D0002CFA01F3D11A914311EAC311E6D17047F7
:1013E0005FEA400C08BF91F0000F4FEA8C234FEAF0
:1013F000C12243EA51514FEA1C5018BF00F5F0409A
:101400004FEA300018BF41F000415FEA6C5C00F029
:101410002980BCF1FF3F08BF40F080407047130CAB
:1014200006BF12044FF0100C4FF0000C130E04BF57
:1014300012020CF1080C130F04BF12010CF1040C82
:10144000930F04BF92000CF1020CD30F04BF5200A3
:101450000CF1010C11464FF00002A0F11F00A0EBAF
:101460000C00704711F0004F08BF704731F0004189
:101470003FF4D5AF0B0C06BF09044FF0100C4FF032
:10148000000C0B0E04BF09020CF1080C0B0F04BF7B
:1014900009010CF1040C8B0F04BF89000CF1020C44
:1014A000CB0F04BF49000CF1010CCCF12003A0EBE1
:1014B0000C0022FA03F302FA0CF241EA030100F1F4
:1014C0000100704720F07F4C80EA030023F07F4743
:1014D000ACEB070303F57C5300F0004003F1FF037E
:1014E0002DE980494FEA154B09B44FEA144325EA28
:1014F0000B4E24EA03480FF2042606EB1327490893
:101500003E785FEA320203FB0667C7F5000707FB78
:1015100006F64FEA54374FEAD64606F1020607FBB5
:10152000066CCCF1005C4FEA1C472CEA074C07FB29
:1015300006F40CFB06F504EB15464FEA961634BF8D
:1015400000204FF000404FEAD13706FB07FC4FEA7E
:101550001C4C0CFB0BF7D21B03FB0CF761EB0701D8
:101560000CFB0EF7B0EB074072EB17420CFB08F7D1
:1015700034BFA2EB0742B2EB074261EB17414FEADF
:101580000C444FEA910706FB07FC4FEA1C4C0CFB8E
:101590000BF7B0EBC74072EB573203FB0CF734BFCD
:1015A000A2EBC742B2EBC74261EB57310CFB0EF71F
:1015B000B0EBC70072EB57720CFB08F734BFA2EB1D
:1015C000C702B2EBC70261EB5771039F4FEA81611B
:1015D00041EA921104EBCC044FEAD1374FEA826220
:1015E00006FB07FC42EA90124FEA80604FEA1C4C6F
:1015F0000CFB0BF7D21B03FB0CF761EB07010CFB99
:101600000EF7B0EB074072EB17420CFB08F734BF44
:10161000A2EB0742B2EB074261EB17414FEA8C5550
:101620004FEA910704EB9C2406FB07FC4FEA1C4C95
:101630000CFB0BF7B0EBC74072EB573203FB0CF718
:1016400034BFA2EBC742B2EBC74261EB57310CFB90
:101650000EF7B0EBC70072EB57720CFB08F734BF04
:10166000A2EBC702B2EBC70261EB577115EB4C2539
:101670004FEA816141EA92114FEA82624FEAD13723
:1016800042EA901206FB07FC44F100044FEA806036
:101690004FEA1C4C0CFB0BF7D21B03FB0CF761EB66
:1016A00007010CFB0EF7B0EB074072EB17420CFB87
:1016B00008F734BFA2EB0742B2EB074261EB1741D8
:1016C00015EB1C154FEA813141EA92414FEA823213
:1016D00042EA90424FEA80304FEA0C7644F100042F
:1016E00048EA03434EEA0B484FF0000EB2EB080CF9
:1016F00071EB030724BF624639464EEB0E0E4FF0E6
:10170000000B0018524149414BEB0B0BB2EB080C9C
:1017100071EB03077BF1000B24BF624639464EEBA9
:101720000E0E4FF0000B0018524149414BEB0B0BD2
:10173000B2EB080C71EB03077BF1000B24BF624690
:1017400039464EEB0E0E51EA020718BF46F001066D
:1017500016EB0E7655F1000254F1000103D5BDE8F9
:101760008901BDE80088BDE88901BDE80048B619D7
:10177000524141EB0101A3F10103704780807F7E5C
:101780007D7C7B7A797877767675747372717170F7
:101790006F6E6E6D6C6C6B6A6A69686867666665A9
:1017A0006464636362616160605F5F5E5E5D5D5C37
:1017B0005C5B5B5A5A5959585857575656555555A8
:1017C0005454535352525251515050504F4F4F4E08
:1017D0004E4D4D4D4C4C4C4B4B4B4A4A4A49494956
:1017E0004848484747474746464645454544444498
:1017F000444343434342424242414141002B9C46C1
:1018000030D477002BD01CB54FEA370703B44FF024
:1018100010004FF01001BAF1000F06D0BCF1000F1C
:10182000DCBF40F0080040F008014FF000000FBCA2
:10183000BDE810400BF1010BBBF1010F08BF5FEADF
:10184000170722BF12F1010211F101014FF000410F
:1018500043F1000300F0004043EA00007047F9D371
:101860005708D0E746EA064613F1400F4FEA1646FE
:101870001FDD13F1200FDFBF16430A46002120337E
:101880005B42BED0C3F1200746EA064602FA07F7DC
:101890004FEA164646EA0706C3F1200722FA03F28A
:1018A00001FA07F721FA03F14FF0000342EA0702B9
:1018B000A7E746EA020646EA06464FEA164646EA21
:1018C0000106BCBF46EA0646360C4FF000034FF057
:1018D00000024FF0000194E72DE9804C9A469346B0
:1018E00070B491E8380007C831EA400C48BF34EAC8
:1018F000430C03D5FFF7E6FDFFF780FFF0BCBDE822
:10190000008C2DE9804C9A46934670B491E83800DB
:1019100007C810F0804F08BF13F0804F03D100F0CC
:1019200005F8FFF76BFFF0BCBDE8008C20F07F47A7
:1019300080EA030023F07F4C07EB0C03A3F57C53F4
:1019400000F00040A3F1FE0392F0000F00F0B3801E
:1019500095F0000F00F077802DE901494FEA114022
:101960004FEA144621EA004800FB06FC24EA064739
:1019700008FB06F607FB08F800FB07F718EB06481C
:101980004CEB164C4FEA124B18EB07484FEA154642
:101990004CEB174022EA0B4E0BFB06FC25EA0647F0
:1019A0000EFB06F607FB0EFE0BFB07F71EEB064EC3
:1019B0004CEB164C4FF000061EEB074E4CEB174B52
:1019C00018EB0B0840F1000018EB0E0B58EB000869
:1019D00040F100008F1A4FF000013CBFC943661B65
:1019E00014BFB5EB040C00213CBFC943F61B4FEA02
:1019F00017444EEA8E0E27EA04454FEA1C4704FBC3
:101A000007622CEA074C05FB07F70CFB05F604FB05
:101A10000CFC16EB074642EB174216EB0C4642EB6A
:101A20001C421BEB060658EB0202414146EA9E06A9
:101A300001D5BDE80189B619524141EB0101A3F17D
:101A40000103BDE801894FEA14454FEA114724EA32
:101A5000054621EA074C05FB07F406FB07F70CFBDC
:101A600006F105FB0CFC11EB074144EB17444FEA70
:101A7000124711EB0C4144EB1C4422EA074C05FBD6
:101A800007F206FB07F70CFB06F605FB0CFC16EB52
:101A9000074642EB174216EB0C4642EB1C456A1810
:101AA00054F1000148BF7047B619524141EB0101A2
:101AB000A3F10103704795F0000F37D04FEA1142B0
:101AC0004FEA144721EA024624EA074C02FB07F1D9
:101AD00006FB07F70CFB06F402FB0CFC14EB0744B7
:101AE00041EB17414FEA154714EB0C4441EB1C4105
:101AF00025EA074C02FB07F506FB07F70CFB06F689
:101B000002FB0CFC16EB074645EB174516EB0C46A3
:101B100045EB1C42121951F1000148BF7047B6193C
:101B2000524141EB0101A3F1010370474FEA144513
:101B30004FEA114724EA054621EA074C05FB07F165
:101B400006FB07F70CFB06F24FF0000605FB0CFC4A
:101B500012EB074241EB174112EB0C4251EB1C41D7
:101B600048BF7047921841EB0101A3F10103704790
:101B700000BFFEE710B510220421024800F0AAF8C9
:101B800010BD00000014014070472DE9F0410246ED
:101B900000250026002000230024002791F803C020
:101BA0000CF00F0591F803C00CF0100CBCF1000F05
:101BB00003D091F802C04CEA050591F800C0BCF1D1
:101BC000000F31D0146800202BE04FF0010C0CFA0C
:101BD00000F3B1F800C00CEA03069E4220D1830056
:101BE0004FF00F0C0CFA03F7BC4305FA03FC4CEA68
:101BF000040491F803C0BCF1280F06D14FF0010C8A
:101C00000CFA00FCC2F814C00AE091F803C0BCF161
:101C1000480F05D14FF0010C0CFA00FCC2F810C0BF
:101C2000401C0828D1D31460B1F800C0BCF1FF0FEC
:101C300034DD546800202EE000F1080C4FF001085C
:101C400008FA0CF3B1F800C00CEA03069E4221D159
:101C500083004FF00F0C0CFA03F7BC4305FA03FCAA
:101C60004CEA040491F803C0BCF1280F05D100F13F
:101C7000080C08FA0CF8C2F8148091F803C0BCF103
:101C8000480F07D100F1080C4FF0010808FA0CF8D2
:101C9000C2F81080401C0828CED35460BDE8F08103
:101CA000016170470AB1016100E04161704700BF06
:101CB000FEE7000010B510224FF4E051044800F098
:101CC00009F84FF4E0510248FFF7EAFF10BD0000A9
:101CD00000100140F8B504460E461546ADF8006008
:101CE0008DF8035003208DF802001E48844204D171
:101CF0000121042000F032FB2EE01B48844204D175
:101D00000121082000F02AFB26E01848844204D173
:101D10000121102000F022FB1EE01548844204D16E
:101D20000121202000F01AFB16E01248844204D161
:101D30000121402000F012FB0EE00F48844204D144
:101D40000121802000F00AFB06E00C48844203D108
:101D50000121801500F002FB69462046FFF715FFC0
:101D6000F8BD000000080140000C014000100140D7
:101D70000014014000180140001C014000200140F7
:101D800000BFFEE710B500F011F84FF4E15100205C
:101D900000F056FD4FF6FF71002000F0A5FD4FF654
:101DA000FF71002000F0E6FD10BD000008B5012124
:101DB000082000F0D3FA4FF47040ADF80000102076
:101DC0008DF8030003208DF8020069460148FFF7F3
:101DD000DCFE08BD000C0140704710B54FF4A06058
:101DE00000F03AF810BD000070B5002100230F226A
:101DF000C47804B3154C246804F4E064C4F5E064CA
:101E0000210AC1F10403CA40447804FA03F184783A
:101E10001440214309010E4C0678A155047804F0C2
:101E20001F050124AC4005786D11AD0005F1E025DA
:101E3000C5F8004109E0047804F01F050124AC4016
:101E4000044D0678761145F8264070BD0CED00E093
:101E500000E400E080E100E002490143024A116031
:101E6000704700000000FA050CED00E070B500249A
:101E70000EE00021204600F0EAF8002504E00020F2
:101E800000F076F9681CC5B2802DF8DB601CC4B286
:101E9000082CEEDB70BD000008B50121102000F019
:101EA0005DFA14208DF8030003208DF80200202035
:101EB000ADF8000069460A48FFF767FE1020ADF84C
:101EC000000069460648FFF760FE01222021044811
:101ED000FFF7E8FE012210210148FFF7E3FE08BDED
:101EE0000010014070B50546002413E08020204119
:101EF00000EA050210210E48FFF7D4FE012220213E
:101F00000B48FFF7CFFE002220210948FFF7CAFE49
:101F1000601CC4B2082CE9DB012220210448FFF731
:101F2000C1FE002220210248FFF7BCFE70BD000068
:101F30000010014010B5012210210948FFF7B2FE40
:101F4000012220210648FFF7ADFE0022102104489F
:101F5000FFF7A8FE002220210148FFF7A3FE10BDD5
:101F60000010014010B5002210210748FFF79AFE2B
:101F7000012220210448FFF795FE0122102102488A
:101F8000FFF790FE10BD00000010014070B5002466
:101F900006E0002500E06D1CB5F57A7FFBD3641CDC
:101FA000B4F57A7FF5D3FFF777FFAE2000F0D0F8D5
:101FB000D52000F0CDF8802000F0CAF8A82000F06D
:101FC000C7F83F2000F0C4F8D32000F0C1F800208B
:101FD00000F0BEF8402000F0BBF8A12000F0B8F8F7
:101FE000C82000F0B5F8DA2000F0B2F8122000F0B6
:101FF000AFF8812000F0ACF8CF2000F0A9F8D9208C
:1020000000F0A6F8F12000F0A3F8DB2000F0A0F823
:10201000302000F09DF8A42000F09AF8A62000F0EF
:1020200097F88D2000F094F8142000F091F8AF207C
:1020300000F08EF8FFF71AFF70BD10B502460120C0
:1020400000E050430B1EA1F10101FAD110BD70B5A3
:1020500005460C4645F0B00000F07AF8102141EA40
:10206000141000F075F804F00F0000F071F870BD66
:102070002DE9F04105460E461746721ED206110E96
:102080006A1E5206100EFFF7E2FF002409E0A7F1D6
:102090002001134A02EB0111085D00F069F8601C91
:1020A000C4B2082CF3DB721ED206110E6A1E012385
:1020B00003EB4202D0B2FFF7CAFF00240BE0A7F106
:1020C0002001074A02EB011204F10801505C00F004
:1020D0004FF8601CC4B2082CF1DBBDE8F0810000B1
:1020E0001E3C00082DE9F04780460E4617461D4667
:1020F000002415E0281B411E0A20FFF79EFFB7FBB6
:10210000F0F00A21B0FBF1F201FB120000F13009FE
:102110003019C1B24A464046FFF7AAFF601CC4B25C
:10212000AC42E7DBBDE8F0872DE9F04107460E46FB
:102130001546002407E02A5D3019C1B23846FFF782
:1021400097FF601CC4B2285D0028F4D1BDE8F0817F
:1021500010B50446FFF7EEFE7820FFF7C3FE00201F
:10216000FFF7C0FE2046FFF7BDFEFFF7FBFE10BDE8
:1021700010B50446FFF7DEFE7820FFF7B3FE4020DF
:10218000FFF7B0FE2046FFF7ADFEFFF7EBFE10BDF8
:102190000748008900B2074908800548808900B2D5
:1021A000054908800248008A00B204490880704747
:1021B000900200205400002056000020580000200B
:1021C00000B502463848007838B9B32A05D1012055
:1021D000354908703548026064E0334800780128CA
:1021E00007D1B32A05D102202F4908702F48426039
:1021F00058E02D480078022805D103202A490870AC
:102200002A4882604EE028480078032805D104203F
:10221000254908702548C26044E023480078042816
:1022200005D1052020490870204802613AE01E4887
:102230000078052821D15B2A07D100201A490870AF
:102240001A484261FFF7A4FF2CE05B2A2AD0002045
:1022500015490870164908600AE000201349144B1C
:102260001B6841F8230012480068401C10490860B0
:102270000F4800680628F0DB14E000200A490870C7
:102280000B4908600AE000200849094B1B6841F827
:10229000230007480068401C05490860044800689E
:1022A0000628F0DB00BD0000600000209002002046
:1022B0005C00002010B5FFF7FDFCFFF75BFC10BDD4
:1022C000154816490860002048608860C860C861E9
:1022D0001348086113484861134888610E48134940
:1022E0000860002048608860C860C8610C480861C8
:1022F0000C4848610C4888614FF081400C490860E7
:10230000002048608860C860C8610A4808610020F1
:10231000486188617047000000007A433002002065
:102320000000A0419A99993D0000E0405002002031
:1023300070020020008022447047000029B1064A44
:10234000D2690243044BDA6104E0034AD269824352
:10235000014BDA61704700000010024029B1064AC3
:1023600092690243044B9A6104E0034A92698243F2
:10237000014B9A61704700000010024030B5002107
:102380000022002400232D4D6D6805F00C0121B1C1
:10239000042905D0082923D105E0294D056022E054
:1023A000274D05601FE0254D6D6805F47012234D23
:1023B0006D6805F48034022505EB92421CB9214D6D
:1023C000554305600BE01D4D6D6805F400351DB1EA
:1023D0001C4D5543056002E0194D5543056002E070
:1023E000174D056000BF00BF144D6D6805F0F0018A
:1023F0000909154D6B5C0568DD4045600F4D6D6842
:1024000005F4E061090A104D6B5C4568DD408560AC
:102410000A4D6D6805F46051C90A0B4D6B5C456847
:10242000DD40C560054D6D6805F44041890B074DE1
:102430006B5CC568B5FBF3F5056130BD001002406B
:1024400000127A0000093D0020000020300000202A
:102450000146022902D0032910D108E04FF0804242
:10246000928C10B200224FF080439A8408E0054A13
:10247000128810B20022034B1A8001E0002000BF36
:1024800000BF704724040040704710B500F002F808
:1024900010BD00000CB5002001900090334800688A
:1024A00040F480303149086000BF3048006800F4D3
:1024B000003000900198401C0190009818B90198D4
:1024C000B0F5A06FF1D12948006800F4003010B1D8
:1024D0000120009001E0002000900098012843D1E5
:1024E0002348006840F01000214908600846006851
:1024F00020F0030008600846006840F00200086011
:102500001A484068194948600846406848600846CB
:10251000406840F4806048600846406820F47C10C1
:1025200048600846406840F4E81048600846006883
:1025300040F08070086000BF0C48006800F0007038
:102540000028F9D00948406820F003000749486096
:102550000846406840F00200486000BF03484068F9
:1025600000F00C000828F9D10CBD0000001002405A
:1025700000200240042808D14FF0E021096941F011
:1025800004014FF0E022116107E04FF0E0210969FA
:1025900021F004014FF0E022116170477047000004
:1025A00010B51348006840F0010011490860084662
:1025B0004068104908400E494860084600680E49C6
:1025C00008400B4908600846006820F48020086035
:1025D0000846406820F4FE0048604FF41F00886001
:1025E000FFF753FF4FF000600449086010BD000082
:1025F000001002400000FFF8FFFFF6FE08ED00E0CB
:10260000F0B50C46154600220021068C4FF6FE77E9
:102610003E400684028B018C4FF60C7632407E1CC5
:1026200006EA03162E433243104EB0420ED0104E2F
:10263000B0420BD0B0F1804F08D00E4EB04205D062
:102640000D4EB04202D00D4EB04206D14FF6FD768F
:10265000314044F00106314305E04FF6F576314054
:1026600044F00106314302830184F0BD002C014097
:10267000003401400004004000080040000C00400D
:10268000F0B50C461546002200210026078C4FF6B7
:10269000EF7C07EA0C070784028B018C4FF6FF776B
:1026A00007EA041640F6FF473A404FF6FF7707EA7D
:1026B00003373A434FF6FF7707EA05273A43114FAE
:1026C000B8420ED0104FB8420BD0B0F1804F08D0B6
:1026D0000E4FB84205D00E4FB84202D00D4FB8424F
:1026E00006D14FF6DF77394046F01007394305E051
:1026F0004FF65F77394044F0100739430283018475
:10270000F0BD0000002C01400034014000040040F6
:1027100000080040000C0040F0B50C4615460022B1
:1027200000210026078C4FF6FF6C07EA0C07078490
:10273000828B018C4FF6FF7707EA04264FF60C7761
:102740003A404FF6FF7707EA03172F433A43114FFA
:10275000B8420ED0104FB8420BD0B0F1804F08D025
:102760000E4FB84205D00E4FB84202D00D4FB842BE
:1027700006D14FF6FF57394046F48077394305E0DC
:102780004FF2FF57394044F4807739438283018404
:10279000F0BD0000002C0140003401400004004066
:1027A00000080040000C0040F0B50C461546002221
:1027B00000210026078C4EF6FF7C07EA0C070784F1
:1027C000828B018C4FF6FF7707EA043640F6FF470D
:1027D0003A404FF6FF7707EA05273A434FF6FF776F
:1027E00007EA03373A43114FB8420ED0104FB842B0
:1027F0000BD0B0F1804F08D00E4FB84205D00E4F2D
:10280000B84202D00D4FB84206D14DF6FF7739409D
:1028100046F48057394305E047F6FF57394044F402
:102820008057394382830184F0BD0000002C0140B1
:10283000003401400004004000080040000C00404B
:1028400030B587B004460D460121C802FFF786FD6A
:1028500001210420FFF782FD18224FF41061204867
:10286000FFF738FA0020ADF81600ADF81200ADF809
:102870001450ADF8104004A91A4800F0E9FA60209D
:10288000ADF800000020ADF806000120ADF8020010
:102890000420ADF804000020ADF80C00ADF80E00E7
:1028A000ADF8080069460F4800F002FA69460D4885
:1028B00000F054FA08210B4800F046FA08210948B4
:1028C00000F08AFA0121074800F02AF901210548A1
:1028D00000F044F90121034800F034F907B030BD9D
:1028E00000080140002C014030B587B004460D4679
:1028F00001210420FFF732FD01210846FFF71EFDEC
:10290000042203211A48FFF7E5F90020ADF816006C
:10291000ADF81200ADF81450ADF8104004A94FF016
:10292000804000F095FA00231A4603214FF08040C2
:1029300000F023F901A800F0A9F90A20ADF80C0075
:1029400001A9400700F04CF90121880700F0F4F8D4
:1029500001221146900700F0A2F900214FF08040BB
:1029600000F047FA0121880700F0ECF807B030BD0D
:102970000008014030B587B004460D46012104200F
:10298000FFF7ECFC01210220FFF7D8FC0422C02154
:102990001948FFF79FF90020ADF81600ADF81200B6
:1029A000ADF81450ADF8104004A9144800F050FAE6
:1029B00000231A460321114800F0DFF801A800F0B7
:1029C00065F90A20ADF80C0001A90C4800F008F9DF
:1029D00001210A4800F0B0F801221146074800F032
:1029E0005EF90021054800F004FA0121034800F0D7
:1029F000A9F807B030BD0000000801400004004005
:102A00002DE9F0410121364800F0D8F8002865D0C2
:102A10000020344908600121314800F090F802207C
:102A2000FFF716FD404200B22F4908800320FFF750
:102A30000FFD00B22C494880B1F9000001F012F8F6
:102A4000044629484168204600F0E8FE26494860CF
:102A5000B1F9020001F006F80446234881682046D7
:102A600000F0DCFE204988604868204900F038FF0B
:102A7000804600F0A7FE06461D4A1E4B00F0A4FD4E
:102A8000044600F06FFD184948618868174900F056
:102A900027FF804600F096FE0646154A154B00F0CB
:102AA00093FD044600F05EFD0F4988610846B0F9C9
:102AB0000220B0F9001010A000F05EFC154800885C
:102AC0003A2808D114480078401C134908703A206D
:102AD0001249087002E0002010490870BDE8F0813A
:102AE00000100040A8012242F401002000008244AE
:102AF00016D9CEF753E32C404D6F746F7231203DE1
:102B00002025642C4D6F746F7232203D2025640D9A
:102B10000A000000560000204000002008000020AD
:102B200021B1028842F08002028004E002884FF660
:102B30007F731A4002807047CA4302827047CA43BB
:102B40000282704721B1028842F00102028004E053
:102B500002884FF6FE731A400280704731B1B0F818
:102B6000442042F40042A0F8442005E0B0F844209C
:102B7000C2F30E02A0F844207047F0B50C4615468B
:102B80001E460021002200230189028B038C4FF690
:102B9000F877394021434FF6FC473A4040F201179D
:102BA0003A434FF6DD773B404FF6FF7707EA0617CB
:102BB0002F433B43018102830384F0BD30B50246BD
:102BC000002000230024158A05EA0103958905EAFF
:102BD000010413B10CB1012000E0002030BD000061
:102BE00070B505460C46244885420ED023488542E0
:102BF0000BD0B5F1804F08D02148854205D021483F
:102C0000854202D02048854200D100E000BF2088E4
:102C100050B92389A28861882846FFF7F1FCE18832
:102C2000284600F0E8F825E0208804280AD1238906
:102C3000A28861882846FFF723FDE188284600F036
:102C4000E3F817E0208808280AD12389A288618840
:102C50002846FFF761FDE188284600F0E2F809E028
:102C60002389A28861882846FFF79EFDE1882846CF
:102C700000F0E0F870BD0000002C0140003401407D
:102C80000004004000080040000C004000210180CA
:102C90004180012181800021C180018170471AB1EA
:102CA00083890B43838102E083898B43838170474F
:102CB00070B5002400220023058C4FF6FE763540C7
:102CC0000584028C8388048B4FF68F752C40B51ECB
:102CD0002C400D882C43751E2A400D892A434D88AF
:102CE0002A43144DA8420BD0134DA84208D0134DCF
:102CF000A84205D0124DA84202D0124DA84213D1CD
:102D00004FF6F7752A404D892A434FF6FB752A4046
:102D10008D882A434FF6FF652B404FF6FF552B4019
:102D20008D892B43CD892B4383800483CD88858671
:102D3000028470BD002C014000340140004001407D
:102D400000440140004801400A460021018B4FF633
:102D5000F7731940114301837047000070B50022DA
:102D600000230024058C4EF6FF7635400584038C45
:102D70008488828B48F6FF752A404FF6FF452A402B
:102D80000D884FF6FF7606EA05252A434DF6FF75B6
:102D90002B400D8906EA05352B434D8806EA05359B
:102DA0002B430B4DA84202D00A4DA84208D14BF646
:102DB000FF752C408D894FF6FF7606EA85152C436A
:102DC00084808283CD88A0F84050038470BD0000C9
:102DD000002C0140003401400A460021818B4FF253
:102DE000FF7319404FF6FF7303EA022319438183EF
:102DF000704781847047028B4FF6F3731A40028349
:102E0000028B0A4302837047028B4FF2FF331A4052
:102E10000283028B4FF6FF7303EA01231A430283F6
:102E20007047828B4FF6F3731A408283828B0A437A
:102E300082837047828B4FF2FF331A408283828BEA
:102E40004FF6FF7303EA01231A43828370470000A1
:102E5000002202881D4B98420ED01D4B98420BD089
:102E6000B0F1804F08D01B4B984205D01A4B9842C6
:102E700002D01A4B984204D14FF68F731A404B88F8
:102E80001A43174B984207D0164B984204D04FF67E
:102E9000FF431A40CB881A4302808B8883850B88B6
:102EA00003850A4B98420BD0094B984208D00E4B31
:102EB000984205D00D4B984202D00D4B984201D15B
:102EC0000B7A03860123838270470000002C0140A7
:102ED000003401400004004000080040000C0040A5
:102EE0000010004000140040004001400044014038
:102EF000004801407FB504460D4601211020FFF730
:102F00001DFA01210846FFF729FAADF80850ADF87F
:102F100004400020ADF80600ADF80A0001A91148F0
:102F2000FFF796FF36208DF8000000208DF8010095
:102F300001208DF802008DF803006846FEF754FF6B
:102F400001210848FFF7F8FD01210648FFF7F7FDCA
:102F5000012211460348FFF7A2FE01210148FFF7B5
:102F6000F1FD7FBD0010004010B540F225511D4815
:102F700000F07EF810B31B4800F036F9C4B21A48CE
:102F8000008800F40040C8B91748008800F4804069
:102F900060B10A2C03D000201349088020E01248B9
:102FA000008840F400401049088019E00D2C06D13B
:102FB0000D48008840F480400B49088010E00A4822
:102FC0000088C0F30D0009490C5407480088401CD4
:102FD0000549088008460088C72801DD00200880D0
:102FE00010BD0000003801403C00002064000020BB
:102FF00010B540F22551094800F03AF868B140F2A6
:103000002551064800F00CF80448001D0088C4B2A1
:103010002046FFF7D5F8FFF7BBF810BD004400408D
:1030200010B50022002340F66A14A14200D100BF6F
:103030000A1201249440A3B2DC43048010BD21B1E4
:10304000828942F40052828104E082894DF6FF7346
:103050001A408281704702460020B1F5007F00D1FE
:1030600000BF13880B400BB1012000E00020704727
:1030700070B50246002400230025002040F66A16A1
:10308000B14200D100BFC1F3421501F01F03012678
:1030900006FA03F3012D02D19689334006E0022D92
:1030A00002D1168A334001E0968A33400C12012681
:1030B00006FA04F41688344013B10CB1012000E084
:1030C000002070BDF0B50346002400260025002036
:1030D00040F66A17B94200D100BF1846C1F3421446
:1030E00001F01F06012707FA06F5012C01D10C306B
:1030F00004E0022C01D1103000E014301AB107684E
:103100002F43076002E00768AF430760F0BD00008F
:103110002DE9F04786B005460E460024A24600BFC2
:10312000A1460027B08900B100BF2F462C8A4CF67B
:10313000FF700440F08804432C82AC894EF6F310F3
:103140000440B08831890843718908430443AC8145
:10315000AC8A4FF6FF400440B0890443AC8201A81A
:10316000FFF70CF91F48874202D1DDF810A001E0FB
:10317000DDF80CA0A88900F4004040B10AEBCA00B9
:1031800000EB0A1031684900B0FBF1F807E00AEBE8
:10319000CA0000EB0A1031688900B0FBF1F8642026
:1031A000B8FBF0F004012009642101FB1089A88913
:1031B00000F4004040B1322000EBC900B0FBF1F058
:1031C00000F00700044308E0322000EB09106421FE
:1031D000B0FBF1F000F00F0004432C8106B0BDE815
:1031E000F08700000038014001468888C0F30800DD
:1031F0007047C1F308028280704700BFFEE74900B4
:1032000050EAC12018BF04204A0D18BF40F0010049
:1032100040F2FF72B2EB515F08BF40F0020001289C
:1032200008BF0520704730380A2801D201207047B6
:103230000020704700BF704710B56FF00400FFF723
:1032400099F90A4800680A49B0FBF1F00949087089
:103250000846007800EB4001C1EBC0104FF6FF714B
:1032600001EAC0000449088010BD00000C000020E5
:1032700000127A003400002036000020FEF7ADFD79
:10328000FFF7DAFFFEF77EFD4FF4E13000F0EEF8D5
:103290004FF4E13000F098F8FFF70CF8FEF776FEF7
:1032A000632141F61F40FFF725FEFFF709F826A22C
:1032B00001210846FEF738FF25A201210220FEF772
:1032C00033FF24A205210220FEF72EFF3BE0002061
:1032D0002149087021480078487000208870022336
:1032E0001F48B0F9002008210120FEF7FBFE022351
:1032F0001C48B0F900200B210120FEF7F3FE022349
:103300001948B0F900200E210120FEF7EBFE03233F
:103310001648027819460220FEF7E4FE02231448FC
:10332000027808211846FEF7DDFE052311480278D1
:1033300001210320FEF7D6FE07484278022301212F
:103340000420FEF7CFFEC2E74F70656E4D763A005F
:10335000733A00006D3A00000900002008000020C8
:1033600054000020560000205800002002000020D9
:1033700003000020400000200FB438B505A80090DD
:103380000F48009A0499FCF799FF002000900C4820
:10339000FCF7A6FF85B200240DE000BF40210948DC
:1033A000FFF759FE0028F9D00548015D0548FFF7F1
:1033B00020FF601C84B2AC42EFDB38BC5DF814FB2C
:1033C0002C0100200038014010B586B004460121D0
:1033D0004804FEF7B3FF01210420FEF7BFFF0420DD
:1033E000ADF8140003208DF8160018208DF8170092
:1033F00005A91C48FEF7C9FB0820ADF814000420FD
:103400008DF8170005A91748FEF7BFFB26208DF899
:10341000000000208DF801008DF8020001208DF8D9
:1034200003006846FEF7E0FC01940020ADF80800B8
:10343000ADF80A00ADF80C00ADF810000C20ADF8A6
:103440000E0001A90848FFF763FE012240F2255152
:103450000548FFF737FE01210348FFF7F0FD06B0EE
:1034600010BD0000000801400044004010B586B0C7
:103470000446012144F20400FEF770FF4FF400708F
:10348000ADF8140003208DF8160018208DF81700F1
:1034900005A91C48FEF779FB4FF48060ADF81400D5
:1034A00004208DF8170005A91648FEF76EFB2520AD
:1034B0008DF8000003208DF801008DF80200012036
:1034C0008DF803006846FEF78FFC01940020ADF8EC
:1034D0000800ADF80A00ADF80C00ADF810000C20A3
:1034E000ADF80E0001A90848FFF712FE012240F2D4
:1034F00025510548FFF7E6FD01210348FFF79FFD31
:1035000006B010BD000801400038014010B5002988
:103510000AD00878002807D005487844FDF720FF36
:10352000002801D0002010BD0248784410BD0000E2
:10353000120E00000A0E000010B500290AD008780B
:10354000002807D005487844FDF70AFF002801D07D
:10355000002010BD0248784410BD0000020E00009B
:10356000FA0D000021F00042A2F16052B2F5801F76
:1035700001F0004328BFD2F17F6C0BD95FEA001C39
:1035800043EAC20242EB507018BF704728BF20F0D8
:1035900001007047B2F5801FBCBF184670474FEA64
:1035A000410C1CF5001F02D2084600F0B9BA70B5F4
:1035B00000F0B4F800000089FFF7F6BF4FF00040BC
:1035C000A0F5800070470000DFF848C170B51CEA24
:1035D000111E1EBF1CEA13159EEA0C0F95EA0C0F74
:1035E00000F06F8081EA030423EA4C134EEAD47E94
:1035F00021EA4C1141F4801143F48013AE44A1FB45
:10360000024CA0FB0365AEF17F7E361955EB0C052D
:10361000A1FB034C4CF10003A0FB021C16EB0C06B3
:10362000654153F10003094218BF46F0010613F447
:10363000007F0BD14FEA03314FEA0530340341EAF2
:10364000155140EA16506FF003020AE04FEAC32119
:103650004FEAC520F40241EA555140EA56506FF056
:10366000020202EB2E4201EB025585EACE710AD02E
:103670005FEA440C18BF24F0004450F1000041F10F
:10368000000120EAD47040F2FE7C624500D270BD99
:10369000A84214BF4FF080444FF04044002E08BFB2
:1036A0000024BEF1806FA8BFA1F1C041BDE8704009
:1036B00080F282804FF0000001F1C04101F0004132
:1036C00070479EEA0C0F0CEA131518BF95EA0C0F11
:1036D00006D04FF0000081EA030E0EF0004170BDED
:1036E00000F01CF88900013E00F007B800F009B8AE
:1036F0004FEA430C5FEA5C5C08D081EA030100F00A
:103700005BB84FEA410C5FEA5C5CF6D14FF0000019
:10371000014970470000FF070000F87F0EF1020E1C
:103720002EF0030E5EF8046B364205D4012A43EBFB
:10373000030515F5001F12D8012841EB010C1CF5FB
:10374000001F0CD80ED14FEAD17C15F5001F0CEBF1
:103750004C0C0CF1020C08BF4CEBD37C04E04FF096
:10376000080C01E04FEAD37C0CEB4C0526FA05F679
:1037700006F00706B6F1040C06D20EEB860CBDE887
:1037800070404CF0010C6047DFE80CF0090B0202BE
:103790004FF000414FF00000A1F5002170BD194627
:1037A0001046012851EB010418BFD4F5001484BF62
:1037B000002001F0004170BD0808A0F500114FEA9B
:1037C0003101704743004FEAD30C4FEA3C0C4340B1
:1037D0001FBF40070CF1605113F0FE4F70471CF003
:1037E000006F03D100200CF0004170470CF0004343
:1037F00043EA507010B540EACC0000F04BF900BF2E
:10380000000000924FEA0001FFF7D6BF4FF00041E1
:103810004FF00000A1F500217047000090EA010F71
:1038200048BF81F0004100F18881421A3CBF801AF4
:1038300089184FEAD0524FF07F4C1CEA410FA2EB9F
:10384000D15318BF9CEA026F00F03B804FF0004C50
:103850004CEA00204CEA012121FA03FC10EB0C0C8D
:103860001ED202F1FF325FEA1C2040EBC25038BF8B
:1038700070471CF07F0F4FEA400C18BFBCF17F4F20
:1038800038BF7047C3F12003994008BF20F0010002
:10389000BCF17F4F38BF7047A0F1C04000F040B985
:1038A0004FEA3C00000A40EBC25028BF1CF0FF0F5B
:1038B0004FEA400CE6D018BFBCF17F4F38BF7047CD
:1038C000EAE79CEA026F05D010EA5C0F08BF00F03F
:1038D0000040704710B500F0DDF800BF64FBBE3E4D
:1038E0004FF47F0C1CEAD0121EBF1CEAD11392EADF
:1038F0000C0F93EA0C0F00F0858090EA010F48BF8F
:1039000042F4807240F4000C41F400002CF07F413E
:1039100020F07F4000B58142A2EB03020FF2081CA9
:10392000ACEB504EC0F100009EF800E04FEA4E0EA6
:1039300000FB0EFC38BF49004FEA2C1C02F5FA02CE
:103940000CFB0EF34FEACE1E4FEA112C4FEAC121B9
:103950000EEB635E42EB22420EFB0CFC4FEA1C5363
:1039600000FB03114FEA112C4FEA01310EFB0CFC56
:103970004FEADC4C00FB0C11C14228BF09184CEB8C
:1039800003335DF804EB10EB410143EBC250B2F599
:103990007C0F38BF704729D512F0F00F1CBF00F123
:1039A000C04000F000407047008182838485868794
:1039B00088898B8C8D8E8F919293959697999A9CEE
:1039C0009D9FA0A2A3A5A7A8AAACAEB0B2B3B5B75D
:1039D000B9BCBEC0C2C5C7C9CCCED1D4D7D9DCDF33
:1039E000E2E6E9ECF0F3F7FAFE0000004FEA400CE3
:1039F0000CF1807CBCF17E4F28BF7047B0F1C04015
:103A000000F08EB890EA010F0CEAD11348BF42F4DF
:103A10008072624538BF634507D213F47F0F16D01A
:103A200080EA010000F00040704710B500F032F865
:103A3000097EFC3E00F005B880EA010000F000407D
:103A4000704780EA010000F0004000F069B812F40D
:103A50007F0F04BF0248704780EA010000F060B8A1
:103A60000000C07F10F0004148BF4042B0FA80F330
:103A700010FA03F2C3F19D030BD051EAC35101EBDD
:103A80001220530638BF704700F1010008BF20F034
:103A9000010070470EF1020E2EF0030E5EF8044B8B
:103AA000244204D44FEA4102B2F17F4F11D84FEAC9
:103AB0004003B3F17F4F0CD80ED14FEAD07CB2F166
:103AC0007F4F0CEB4C0C0CF1020C08BF4CEBD17C83
:103AD00004E04FF0080C01E04FEAD17C0CEB4C0302
:103AE00024FA03F404F00704B4F1040C06D20EEB3C
:103AF000840CBDE810404CF0010C6047DFE80CF08E
:103B0000070802024FF00040A0F5800010BD0846F3
:103B1000420018BFD2F1807288BF00F0004010BD93
:103B2000FF2141EAD050C0057047000090EA010F24
:103B300048BF81F000413FF578AE421A04D882F0C8
:103B40000042A0EB020011444FEAD0524FF07F4CEC
:103B50001CEA410FA2EBD15318BF9CEA026F4AD076
:103B60004FF0004C4CEA00204CEA012121FA03FC02
:103B7000B0EB0C0C0FD412F0FE0F36D05FEA4C0005
:103B80001DD5001240EBC25038BF70471CF03F0FEC
:103B900018BF70470BE0A2F101025FEA1C2040EB66
:103BA000C25038BF70471CF07F0F18BF7047C3F179
:103BB0002003994014BF401E20F001007047800888
:103BC0004FEA122308BF7047B0FA80FCA2EB0C0248
:103BD000CCF1280C60FA0CF093EA122F04BF00EB32
:103BE000C25070474FEAC3707047130A5FEADC1097
:103BF00008BF7047F6E79CEA026F04D010EA5C0F3A
:103C000008BF0020704710B5FFF744FF40DFF63EC5
:103C100081F000407047FCF7B0BFFDF7E5B8000049
:103C20000000000000000000000000000000000094
:103C300000F8000000000000003330000000001019
:103C40000C06100C0600000000000000000040C040
:103C50007840C0784000043F04043F040400007032
:103C600088FC08300000001820FF211E0000F0082A
:103C7000F000E018000000211C031E211E0000F0CF
:103C80000888700000001E21232419272110101617
:103C90000E00000000000000000000000000000016
:103CA00000E0180402000000000718204000000295
:103CB0000418E00000000040201807000000404009
:103CC00080F0804040000202010F0102020000006B
:103CD00000F0000000000101011F010101000000CF
:103CE00000000000000080B0700000000000000034
:103CF00000000000000000010101010101010000BD
:103D00000000000000000030300000000000000053
:103D1000000080601804006018060100000000E048
:103D200010080810E000000F102020100F000010F5
:103D300010F8000000000020203F2020000000704C
:103D40000808088870000030282422213000003044
:103D50000888884830000018202020110E0000003C
:103D6000C02010F8000000070424243F240000F8BD
:103D70000888880808000019212020110E0000E0A2
:103D8000108888180000000F112020110E00003844
:103D90000808C83808000000003F0000000000705C
:103DA000880808887000001C222121221C0000E0E5
:103DB00010080810E0000000312222110F0000005E
:103DC00000C0C00000000000003030000000000013
:103DD0000080000000000000806000000000000083
:103DE000804020100800000102040810200040401C
:103DF000404040404000040404040404040000085F
:103E00001020408000000020100804020100007013
:103E100048080808F0000000003036010000C030FB
:103E2000C828E810E0000718272423140B0000001E
:103E3000C038E0000000203C23020227382008F8A8
:103E4000888888700000203F202020110E00C0309C
:103E5000080808083800071820202010080008F873
:103E600008080810E000203F202020100F0008F86C
:103E70008888E8081000203F20202320180008F838
:103E80008888E8081000203F200003000000C030B0
:103E900008080838000007182020221E020008F831
:103EA00008000008F808203F210101213F200008F8
:103EB00008F8080800000020203F20200000000033
:103EC0000808F8080800C08080807F00000008F81B
:103ED00088C028180800203F20012638200008F854
:103EE000080000000000203F20202020300008F8BB
:103EF000F800F8F80800203F003F003F200008F8D5
:103F000030C00008F808203F200007183F00E010EC
:103F100008080810E0000F10202020100F0008F8FB
:103F200008080808F000203F210101010000E0100E
:103F300008080810E0000F18242438504F0008F833
:103F4000888888887000203F2000030C3020007093
:103F50008808080838000038202121221C00180891
:103F600008F8080818000000203F2000000008F8AA
:103F700008000008F808001F202020201F000878F3
:103F8000880000C83808000007380E010000F80853
:103F900000F80008F800033C0700073C030008187D
:103FA00068808068180820302C03032C30200838E3
:103FB000C800C83808000000203F2000000010089A
:103FC0000808C838080020382621202018000000E2
:103FD00000FE020202000000007F40404000000C92
:103FE00030C000000000000000010638C0000002E0
:103FF0000202FE000000004040407F000000000080
:1040000004020202040000000000000000000000A2
:10401000000000000000808080808080808000029E
:10402000020400000000000000000000000000008A
:104030008080808000000019242222223F2008F87E
:10404000008080000000003F112020110E000000C1
:10405000008080800000000E112020201100000050
:1040600000808088F800000E112020103F20000002
:10407000808080800000001F222222221300008006
:1040800080F0888888180020203F20200000000051
:10409000808080808000006B94949493600008F886
:1040A000008080800000203F210000203F20008011
:1040B0009898000000000020203F20200000000011
:1040C00000809898000000C08080807F000008F881
:1040D000000080808000203F24022D302000000856
:1040E00008F8000000000020203F20200000808011
:1040F000808080808000203F20003F20003F808023
:10410000008080800000203F210000203F20000030
:10411000808080800000001F202020201F008080E1
:1041200000808000000080FFA12020110E00000010
:10413000008080808000000E112020A0FF80808001
:1041400080008080800020203F21200001000000AE
:104150008080808080000033242424241900008083
:1041600080E0808000000000001F20200000808090
:10417000000000808000001F202020103F20808051
:1041800080000080808000010E30080601008080E1
:104190000080008080800F300C030C300F00008006
:1041A0008000808080000020312E0E312000808031
:1041B00080000080808080818E7018060100008061
:1041C0008080808080000021302C2221300000007F
:1041D0000000807C020200000000003F4040000020
:1041E0000000FF00000000000000FF0000000002CF
:1041F000027C800000000040403F000000000006FC
:1042000001010202040400000000000000000000A0
:104210000000000000000000303132333435363702
:1042200038394142434445464030580030313233FA
:1042300034353637383961626364656640307800FA
:10424000040000080000000000000002000100005F
:104250001030313233343536373839616263646552
:104260006678700030313233343536373839414270
:10427000434445465850000002400000000000A0A2
:104280000000000005400000000000C80000000021
:104290000C4000000000409C00000000194000009D
:1042A0000020BCBE0000000034400000BFC91B8ECF
:1042B00000000004B5400000504BCFD06607E2CFAD
:1042C000010000006C4100003E8251AADFEEA734DD
:1042D00001000000D9420000DCB5A0E23A301F978F
:1042E000FFFFFFFFB4450000FD25A0C8E9A3C14FB3
:1042F000FFFFFFFFFF3F0000000000800000000004
:10430000FF3F00000000008000000000584400084B
:1043100000000020640000006C010008BC4400089C
:1043200064000020A4080000880100081C000000B0
:1043300043000000F8FFFFFF0C0000000E0000002B
:104340000F0000002E0000001001000043000000DC
:10435000F8FFFFFF004040404040404040404141A6
:10436000414141404040404040404040404040404A
:1043700040404040400502020202020202020202E4
:1043800002020202022020202020202020202002E1
:104390000202020202029090909090901010101071
:1043A000101010101010101010101010101010100D
:1043B00002020202020288888888888808080808A1
:1043C000080808080808080808080808080808086D
:1043D0000202020240000000000000000000000095
:1043E00000000000000000000000000000000000CD
:1043F00000000000000000000000000000000000BD
:1044000000000000000000000000000000000000AC
:10441000000000000000000000000000000000009C
:10442000000000000000000000000000000000008C
:10443000000000000000000000000000000000007C
:10444000000000000000000000000000000000006C
:10445000000000000000000000000000000000005C
:104460000000000000A24A0400000000000000005C
:10447000010203040607080900000000010203040A
:1044800001020304060708090204060800000000F0
:10449000000000000000000000000000000000001C
:1044A000000000000000000000000000000000000C
:0C44B00000000000000000000000000000
:0400000508000131BD
:00000001FF
