:020000040800F2
:1000000010090020CD01000841060008CD030008BA
:10001000690500087D0200082F1B00080000000091
:10002000000000000000000000000000ED0C0008CF
:1000300095020008000000009D0B0008010E00085A
:10004000E7010008E7010008E7010008E7010008F0
:10005000E7010008E7010008E7010008E7010008E0
:10006000E7010008E7010008E7010008E7010008D0
:10007000E7010008E7010008E7010008E7010008C0
:10008000E7010008E7010008E7010008E7010008B0
:10009000E7010008E7010008E7010008E7010008A0
:1000A000E7010008E7010008E7010008E701000890
:1000B000E7010008E7010008E7010008E701000880
:1000C000E7010008E7010008E7010008E701000870
:1000D000E701000875180008FD1800082D19000830
:1000E000E7010008E7010008E7010008E701000850
:1000F000E7010008E7010008E7010008E701000840
:10010000E7010008E7010008E7010008E70100082F
:10011000E7010008E701000865120008E701000890
:10012000E7010008E7010008E7010008E70100080F
:1001300000F002F800F03AF80AA090E8000C8244BF
:100140008344AAF10107DA4501D100F02FF8AFF29C
:10015000090EBAE80F0013F0010F18BFFB1A43F0A5
:10016000010318473C3400005C340000103A24BFFF
:1001700078C878C1FAD8520724BF30C830C144BF0C
:1001800004680C607047000000230024002500264E
:10019000103A28BF78C1FBD8520728BF30C148BFEA
:1001A0000B6070471FB51FBD10B510BD00F033F8D0
:1001B0001146FFF7F7FF01F04DFD00F051F803B4D1
:1001C000FFF7F2FF03BC01F0B4FC000009488047D0
:1001D00009480047FEE7FEE7FEE7FEE7FEE7FEE729
:1001E000FEE7FEE7FEE7FEE704480549054A064B41
:1001F00070470000050E00083101000810030020C0
:1002000010090020100500201005002070477047DD
:10021000704770477047754600F02CF8AE460500F1
:100220006946534620F00700854618B020B5FFF711
:10023000DBFFBDE820404FF000064FF000074FF015
:1002400000084FF0000B21F00701AC46ACE8C009F4
:10025000ACE8C009ACE8C009ACE8C0098D467047FD
:1002600010B50446AFF300802046BDE81040FFF70C
:10027000A6BF000000487047B002002000BFFEE7A4
:1002800010B510220421024800F018F910BD00003A
:100290000014014070472DE9F04102460025002678
:1002A000002000230024002791F803C00CF00F0564
:1002B00091F803C00CF0100CBCF1000F03D091F8C2
:1002C00002C04CEA050591F800C0BCF1000F31D026
:1002D000146800202BE04FF0010C0CFA00F3B1F889
:1002E00000C00CEA03069E4220D183004FF00F0CA1
:1002F0000CFA03F7BC4305FA03FC4CEA040491F83A
:1003000003C0BCF1280F06D14FF0010C0CFA00FC21
:10031000C2F814C00AE091F803C0BCF1480F05D13F
:100320004FF0010C0CFA00FCC2F810C0401C082869
:10033000D1D31460B1F800C0BCF1FF0F34DD5468B4
:1003400000202EE000F1080C4FF0010808FA0CF331
:10035000B1F800C00CEA03069E4221D183004FF0A1
:100360000F0C0CFA03F7BC4305FA03FC4CEA040437
:1003700091F803C0BCF1280F05D100F1080C08FA70
:100380000CF8C2F8148091F803C0BCF1480F07D1F3
:1003900000F1080C4FF0010808FA0CF8C2F81080C0
:1003A000401C0828CED35460BDE8F08102460020EE
:1003B00093680B400BB1012000E000207047016101
:1003C00070470AB1016100E04161704700BFFEE77C
:1003D00010B5002401211E48FFF7E8FF70B9142072
:1003E00001F0CCFB00BF01211948FFF7DFFF002817
:1003F000F9D0142001F0C2FB012426E002211448A8
:10040000FFF7D4FF70B9142001F0B8FB00BF022140
:100410000F48FFF7CBFF0028F9D0142001F0AEFB06
:10042000022412E004210A48FFF7C0FF68B9142033
:1004300001F0A4FB00BF04210548FFF7B7FF002827
:10044000F9D0142001F09AFB0324204610BD0000CF
:100450000010014010B510224FF4E051044800F0A4
:100460002DF84FF4E0510248FFF7A9FF10BD00003E
:1004700000100140002801DD024600E04242104623
:10048000002901DD0A4600E04A421146B0F57A6FC4
:1004900002DD4FF47A6200E002461046B1F57A6F51
:1004A00002DD4FF47A6200E00A461146024B1880E2
:1004B000014B0C3B19807047402C0140F8B50446B5
:1004C0000E461546ADF800608DF8035003208DF8F8
:1004D00002001E48844204D10121042000F070FB78
:1004E0002EE01B48844204D10121082000F068FB63
:1004F00026E01848844204D10121102000F060FB5E
:100500001EE01548844204D10121202000F058FB50
:1005100016E01248844204D10121402000F050FB33
:100520000EE00F48844204D10121802000F048FBF6
:1005300006E00C48844203D10121801500F040FB05
:1005400069462046FFF7A7FEF8BD000000080140FD
:10055000000C01400010014000140140001801404F
:10056000001C01400020014000BFFEE710B500F074
:1005700011F84FF4E151002000F094FD4FF6FF71A7
:10058000002000F0E3FD4FF6FF71002000F024FE94
:1005900010BD000008B50121082000F011FB4FF448
:1005A0007040ADF8000010208DF8030003208DF896
:1005B000020069460148FFF76EFE08BD000C0140CD
:1005C000012807D100210C4A116001210B4AC2F811
:1005D000B41110E038B90121074A11600021074A1F
:1005E000C2F8B41107E0022805D10021024A1160C7
:1005F000024AC2F8B4117047B08121420080214202
:10060000012807D101210C4A116000210B4AC2F8D0
:10061000B81110E038B90021074A11600121074ADA
:10062000C2F8B81107E0022805D10021024A116082
:10063000024AC2F8B8117047BC81214200802142B1
:10064000704710B54FF4A06000F03AF810BD0000FC
:1006500070B5002100230F22C47804B3154C246820
:1006600004F4E064C4F5E064210AC1F10403CA4063
:10067000447804FA03F184781440214309010E4CB4
:100680000678A155047804F01F050124AC400578D4
:100690006D11AD0005F1E025C5F8004109E00478D1
:1006A00004F01F050124AC40044D0678761145F88E
:1006B000264070BD0CED00E000E400E080E100E0C9
:1006C00002490143024A1160704700000000FA0528
:1006D0000CED00E070B500240EE00021204600F093
:1006E000EAF8002504E0002000F076F9681CC5B2A5
:1006F000802DF8DB601CC4B2082CEEDB70BD00005E
:1007000008B50121102000F05BFA14208DF80300D9
:1007100003208DF802002020ADF8000069460A4849
:10072000FFF7B9FD1020ADF8000069460648FFF755
:10073000B2FD012220210448FFF743FE01221021CF
:100740000148FFF73EFE08BD0010014070B50546A8
:10075000002413E08020204100EA050210210E4809
:10076000FFF72FFE012220210B48FFF72AFE00226F
:1007700020210948FFF725FE601CC4B2082CE9DBE4
:10078000012220210448FFF71CFE002220210248FC
:10079000FFF717FE70BD00000010014010B50122E8
:1007A00010210948FFF70DFE012220210648FFF71E
:1007B00008FE002210210448FFF703FE002220213A
:1007C0000148FFF7FEFD10BD0010014010B50022EA
:1007D00010210748FFF7F5FD012220210448FFF70B
:1007E000F0FD012210210248FFF7EBFD10BD0000D3
:1007F0000010014070B5002406E0002500E06D1CEB
:10080000B5F57A7FFBD3641CB4F57A7FF5D3FFF797
:1008100077FFAE2000F0D0F8D52000F0CDF8802092
:1008200000F0CAF8A82000F0C7F83F2000F0C4F894
:10083000D32000F0C1F8002000F0BEF8402000F006
:10084000BBF8A12000F0B8F8C82000F0B5F8DA2015
:1008500000F0B2F8122000F0AFF8812000F0ACF800
:10086000CF2000F0A9F8D92000F0A6F8F12000F080
:10087000A3F8DB2000F0A0F8302000F09DF8A420C1
:1008800000F09AF8A62000F097F88D2000F094F878
:10089000142000F091F8AF2000F08EF8FFF71AFF57
:1008A00070BD10B50246012000E050430B1EA1F1BF
:1008B0000101FAD110BD70B505460C4645F0B000F7
:1008C00000F07AF8102141EA141000F075F804F0F5
:1008D0000F0000F071F870BD2DE9F04105460E469D
:1008E0001746721ED206110E6A1E5206100EFFF730
:1008F000E2FF002409E0A7F12001134A02EB0111F5
:10090000085D00F069F8601CC4B2082CF3DB721EAD
:10091000D206110E6A1E012303EB4202D0B2FFF78A
:10092000CAFF00240BE0A7F12001074A02EB0112E5
:1009300004F10801505C00F04FF8601CC4B2082CB0
:10094000F1DBBDE8F0810000AE2F00082DE9F04793
:1009500080460E4617461D46002415E0281B411E02
:100960000A20FFF79EFFB7FBF0F00A21B0FBF1F27F
:1009700001FB120000F130093019C1B24A4640466D
:10098000FFF7AAFF601CC4B2AC42E7DBBDE8F0870A
:100990002DE9F04107460E461546002407E02A5D82
:1009A0003019C1B23846FFF797FF601CC4B2285D0A
:1009B0000028F4D1BDE8F08110B50446FFF7EEFE43
:1009C0007820FFF7C3FE0020FFF7C0FE2046FFF7A8
:1009D000BDFEFFF7FBFE10BD10B50446FFF7DEFEBF
:1009E0007820FFF7B3FE4020FFF7B0FE2046FFF768
:1009F000ADFEFFF7EBFE10BD0748008900B20749C6
:100A000008800548808900B2054908800248008AAC
:100A100000B2044908807047980200205C00002062
:100A20005E0000206000002000B5024638480078D3
:100A300038B9B32A05D1012035490870354802601C
:100A400064E033480078012807D1B32A05D1022099
:100A50002F4908702F48426058E02D48007802283E
:100A600005D103202A4908702A4882604EE02848B0
:100A70000078032805D10420254908702548C26064
:100A800044E023480078042805D105202049087057
:100A9000204802613AE01E480078052821D15B2AEF
:100AA00007D100201A4908701A484261FFF7A4FFD5
:100AB0002CE05B2A2AD000201549087016490860EE
:100AC0000AE000201349144B1B6841F82300124828
:100AD0000068401C104908600F4800680628F0DBD9
:100AE00014E000200A4908700B4908600AE0002061
:100AF0000849094B1B6841F8230007480068401C5F
:100B000005490860044800680628F0DB00BD0000C5
:100B100068000020980200206400002010B5FFF754
:100B200099FCFFF7ADFB10BD002014490860486038
:100B30008860C860C861124808611248486112485C
:100B4000886100201149086048608860C860C861F9
:100B50000B4808610B4848610B4888614FF08140A1
:100B60000B490860002048608860C860C861094877
:100B700008610020486108488861704738020020F9
:100B800000003442CDCC4C3E0000A0405802002072
:100B9000780200200000FA4400004843704700003B
:100BA00029B1064AD2690243044BDA6104E0034AE0
:100BB000D2698243014BDA617047000000100240A5
:100BC00029B1064A92690243044B9A6104E0034A40
:100BD00092698243014B9A61704700000010024005
:100BE00030B500210022002400232D4D6D6805F052
:100BF0000C0121B1042905D0082923D105E0294D94
:100C0000056022E0274D05601FE0254D6D6805F465
:100C10007012234D6D6805F48034022505EB924275
:100C20001CB9214D554305600BE01D4D6D6805F461
:100C300000351DB11C4D5543056002E0194D55436B
:100C4000056002E0174D056000BF00BF144D6D68E0
:100C500005F0F0010909154D6B5C0568DD40456044
:100C60000F4D6D6805F4E061090A104D6B5C456835
:100C7000DD4085600A4D6D6805F46051C90A0B4D71
:100C80006B5C4568DD40C560054D6D6805F440410D
:100C9000890B074D6B5CC568B5FBF3F5056130BD8D
:100CA0000010024000127A0000093D0024000020DC
:100CB000340000200146022902D0032910D108E0A7
:100CC0004FF08042928C10B200224FF080439A8401
:100CD00008E0054A128810B20022034B1A8001E096
:100CE000002000BF00BF704724040040704710B5CB
:100CF00000F002F810BD00000CB50020019000903B
:100D00003348006840F480303149086000BF304803
:100D1000006800F4003000900198401C0190009899
:100D200018B90198B0F5A06FF1D12948006800F416
:100D3000003010B10120009001E0002000900098E8
:100D4000012843D12348006840F010002149086081
:100D50000846006820F0030008600846006840F07C
:100D6000020008601A48406819494860084640680F
:100D700048600846406840F4806048600846406823
:100D800020F47C1048600846406840F4E810486051
:100D90000846006840F08070086000BF0C4800689A
:100DA00000F000700028F9D00948406820F00300E6
:100DB000074948600846406840F00200486000BFAC
:100DC0000348406800F00C000828F9D10CBD000071
:100DD0000010024000200240042808D14FF0E0211A
:100DE000096941F004014FF0E022116107E04FF082
:100DF000E021096921F004014FF0E0221161704700
:100E00007047000010B51348006840F00100114918
:100E1000086008464068104908400E494860084686
:100E200000680E4908400B4908600846006820F435
:100E3000802008600846406820F4FE0048604FF4B7
:100E40001F008860FFF753FF4FF0006004490860FF
:100E500010BD0000001002400000FFF8FFFFF6FE8A
:100E600008ED00E0F0B50C46154600220021068C86
:100E70004FF6FE773E400684028B018C4FF60C76CF
:100E800032407E1C06EA03162E433243104EB04217
:100E90000ED0104EB0420BD0B0F1804F08D00E4EA5
:100EA000B04205D00D4EB04202D00D4EB04206D138
:100EB0004FF6FD76314044F00106314305E04FF630
:100EC000F576314044F00106314302830184F0BDE0
:100ED000002C0140003401400004004000080040A4
:100EE000000C0040F0B50C461546002200210026FB
:100EF000078C4FF6EF7C07EA0C070784028B018C06
:100F00004FF6FF7707EA041640F6FF473A404FF6E0
:100F1000FF7707EA03373A434FF6FF7707EA0527DB
:100F20003A43114FB8420ED0104FB8420BD0B0F137
:100F3000804F08D00E4FB84205D00E4FB84202D0B5
:100F40000D4FB84206D14FF6DF77394046F0100713
:100F5000394305E04FF65F77394044F010073943D5
:100F600002830184F0BD0000002C014000340140E8
:100F70000004004000080040000C0040F0B50C46A2
:100F80001546002200210026078C4FF6FF6C07EA69
:100F90000C070784828B018C4FF6FF7707EA042643
:100FA0004FF60C773A404FF6FF7707EA03172F43C7
:100FB0003A43114FB8420ED0104FB8420BD0B0F1A7
:100FC000804F08D00E4FB84205D00E4FB84202D025
:100FD0000D4FB84206D14FF6FF57394046F480779F
:100FE000394305E04FF2FF57394044F480773943E5
:100FF00082830184F0BD0000002C014000340140D8
:101000000004004000080040000C0040F0B50C4611
:101010001546002200210026078C4EF6FF7C07EAC9
:101020000C070784828B018C4FF6FF7707EA0436A2
:1010300040F6FF473A404FF6FF7707EA05273A4365
:101040004FF6FF7707EA03373A43114FB8420ED005
:10105000104FB8420BD0B0F1804F08D00E4FB842BD
:1010600005D00E4FB84202D00D4FB84206D14DF612
:10107000FF77394046F48057394305E047F6FF577C
:10108000394044F48057394382830184F0BD000025
:10109000002C0140003401400004004000080040E2
:1010A000000C004030B587B004460D460121C8024F
:1010B000FFF786FD01210420FFF782FD18224FF47F
:1010C00010612048FFF7FAF90020ADF81600ADF8DE
:1010D0001200ADF81450ADF8104004A91A4800F001
:1010E0003DFB6020ADF800000020ADF806000120B7
:1010F000ADF802000420ADF804000020ADF80C00AB
:10110000ADF80E00ADF8080069460F4800F056FA39
:1011100069460D4800F0A8FA08210B4800F09AFA39
:101120000821094800F0DEFA0121074800F070F9B3
:101130000121054800F099F90121034800F089F9DF
:1011400007B030BD00080140002C014030B587B029
:1011500004460D4601210420FFF732FD0121084617
:10116000FFF71EFD042203211A48FFF7A7F900200C
:10117000ADF81600ADF81200ADF81450ADF81040FF
:1011800004A94FF0804000F0E9FA00231A46032139
:101190004FF0804000F078F901A800F0FDF90A2036
:1011A000ADF80C0001A9400700F0A0F90121880763
:1011B00000F049F901221146900700F0F6F90021EC
:1011C0004FF0804000F09BFA0121880700F041F9C0
:1011D00007B030BD0008014030B587B004460D4669
:1011E00001210420FFF7ECFC01210220FFF7D8FCCD
:1011F0000422C0211948FFF761F90020ADF816005C
:10120000ADF81200ADF81450ADF8104004A9144820
:1012100000F0A4FA00231A460321114800F034F923
:1012200001A800F0B9F90A20ADF80C0001A90C489A
:1012300000F05CF901210A4800F005F9012211468D
:10124000074800F0B2F90021054800F058FA0121E2
:10125000034800F0FEF807B030BD00000008014070
:10126000000400402DE9F04101215F4800F02DF914
:1012700000287DD000205D49086001215A4800F017
:10128000E5F80220FFF716FD00B259490880032057
:10129000FFF710FD404200B255494880B1F9000007
:1012A00001F0C6FC044652484168204601F054FB58
:1012B0004F494860B1F9020001F0BAFC04464C48BD
:1012C0008168204601F048FB494988600A469168D8
:1012D000506801F041FB04464FF0804101F0AAFB49
:1012E0004349C8614868434901F0A4FB804601F0C6
:1012F00007FB0646404A414B01F004FA044601F060
:1013000077F83B49486188683A4901F093FB804689
:1013100001F0F6FA0646384A384B01F0F3F9044674
:1013200001F066F83249886100F07EFE044601F063
:1013300043FC2F49C86000F041FE044601F03CFC2C
:101340002B49086100F040FC29490862C86801F097
:101350006FFC05462648016A284601F0B3FD0446A5
:1013600001F02AFC2249C860086901F061FC00E034
:1013700038E005461E48016A284601F0EDFA0446A9
:1013800001F01AFC1A4908610846C068002803DD0C
:101390000020FFF715F902E00120FFF711F91448CA
:1013A0000069002803DD0020FFF72AF902E0012090
:1013B000FFF726F91248008820B10D4A1169D0685C
:1013C000FFF758F80F4800883A2808D10E480078EF
:1013D000401C0D4908703A200C49087002E00020BA
:1013E0000A490870BDE8F08100100040A8012242BF
:1013F000FC0100200000824416D9CEF753E32C40B4
:101400005C0000205E000020470000204600002015
:1014100021B1028842F08002028004E002884FF687
:101420007F731A400280704730B5002301248C403E
:10143000A3B2048C9C430484048C02FA01F5ADB27F
:101440002C43048430BDCA4302827047CA430282DF
:10145000704721B1028842F00102028004E0028854
:101460004FF6FE731A400280704731B1B0F8442045
:1014700042F40042A0F8442005E0B0F84420C2F352
:101480000E02A0F844207047F0B50C4615461E46E3
:101490000021002200230189028B038C4FF6F8778C
:1014A000394021434FF6FC473A4040F201173A4396
:1014B0004FF6DD773B404FF6FF7707EA06172F43DD
:1014C0003B43018102830384F0BD30B50246002016
:1014D00000230024158A05EA0103958905EA010421
:1014E00013B10CB1012000E0002030BD70B50546FD
:1014F0000C46244885420ED0234885420BD0B5F1D6
:10150000804F08D02148854205D02148854202D02D
:101510002048854200D100E000BF208850B92389CF
:10152000A28861882846FFF79DFCE188284600F0E4
:10153000E8F825E0208804280AD12389A288618858
:101540002846FFF7CFFCE188284600F0E3F817E0D3
:10155000208808280AD12389A28861882846FFF7B5
:101560000DFDE188284600F0E2F809E02389A28811
:1015700061882846FFF74AFDE188284600F0E0F838
:1015800070BD0000002C0140003401400004004008
:1015900000080040000C0040002101804180012132
:1015A00081800021C180018170471AB183890B437A
:1015B000838102E083898B438381704770B5002467
:1015C00000220023058C4FF6FE7635400584028C00
:1015D0008388048B4FF68F752C40B51E2C400D88E8
:1015E0002C43751E2A400D892A434D882A43144DE9
:1015F000A8420BD0134DA84208D0134DA84205D0E5
:10160000124DA84202D0124DA84213D14FF6F775E1
:101610002A404D892A434FF6FB752A408D882A437C
:101620004FF6FF652B404FF6FF552B408D892B431E
:10163000CD892B4383800483CD888586028470BD49
:10164000002C0140003401400040014000440140B2
:10165000004801400A460021018B4FF6F7731940FC
:10166000114301837047000070B50022002300245D
:10167000058C4EF6FF7635400584038C8488828B7A
:1016800048F6FF752A404FF6FF452A400D884FF671
:10169000FF7606EA05252A434DF6FF752B400D8996
:1016A00006EA05352B434D8806EA05352B430B4DDD
:1016B000A84202D00A4DA84208D14BF6FF752C4033
:1016C0008D894FF6FF7606EA85152C438480828348
:1016D000CD88A0F84050038470BD0000002C01406C
:1016E000003401400A460021818B4FF2FF731940FC
:1016F0004FF6FF7303EA0223194381837047818405
:101700007047028B4FF6F3731A400283028B0A4331
:1017100002837047028B4FF2FF331A400283028B21
:101720004FF6FF7303EA01231A4302837047828B4B
:101730004FF6F3731A408283828B0A438283704789
:10174000828B4FF2FF331A408283828B4FF6FF73F6
:1017500003EA01231A4382837047000000220288B3
:101760001D4B98420ED01D4B98420BD0B0F1804FCC
:1017700008D01B4B984205D01A4B984202D01A4B06
:10178000984204D14FF68F731A404B881A43174B77
:10179000984207D0164B984204D04FF6FF431A40A8
:1017A000CB881A4302808B8883850B8803850A4B7C
:1017B00098420BD0094B984208D00E4B984205D066
:1017C0000D4B984202D00D4B984201D10B7A038603
:1017D0000123838270470000002C01400034014047
:1017E0000004004000080040000C004000100040D1
:1017F0000014004000400140004401400048014006
:101800007FB504460D4601211020FFF7C9F90121DB
:101810000846FFF7D5F9ADF80850ADF804400020B0
:10182000ADF80600ADF80A0001A91148FFF796FFD0
:1018300036208DF8000000208DF8010001208DF881
:1018400002008DF803006846FEF702FF01210848F8
:10185000FFF7F9FD01210648FFF7F8FD01221146C7
:101860000348FFF7A2FE01210148FFF7F2FD7FBD0B
:101870000010004010B540F225511D4800F092F8CC
:1018800010B31B4800F04AF9C4B21A48008800F4AB
:101890000040C8B91748008800F4804060B10A2CA5
:1018A00003D000201349088020E01248008840F44B
:1018B00000401049088019E00D2C06D10D48008821
:1018C00040F480400B49088010E00A480088C0F3CB
:1018D0000D0009490C5407480088401C0549088040
:1018E00008460088C72801DD0020088010BD0000E0
:1018F00000380140400000206C00002010B540F28C
:101900002551094800F04EF868B140F225510648CB
:1019100000F020F80448001D0088C4B22046FFF7FC
:1019200083F8FFF769F810BD0044004010B540F29D
:101930002551074800F036F840B1054800F0EEF8B0
:10194000C4B240F22551024800F004F810BD000076
:101950000048004010B50022002340F66A14A1425E
:1019600000D100BF0A1201249440A3B2DC430480DA
:1019700010BD21B1828942F40052828104E0828943
:101980004DF6FF731A408281704702460020B1F580
:10199000007F00D100BF13880B400BB1012000E095
:1019A0000020704770B50246002400230025002067
:1019B00040F66A16B14200D100BFC1F3421501F0F2
:1019C0001F03012606FA03F3012D02D19689334045
:1019D00006E0022D02D1168A334001E0968A334098
:1019E0000C12012606FA04F41688344013B10CB127
:1019F000012000E0002070BDF0B503460024002661
:101A00000025002040F66A17B94200D100BF1846F1
:101A1000C1F3421401F01F06012707FA06F5012C55
:101A200001D10C3004E0022C01D1103000E0143060
:101A30001AB107682F43076002E00768AF430760E9
:101A4000F0BD00002DE9F04786B005460E460024A3
:101A5000A24600BFA1460027B08900B100BF2F46B3
:101A60002C8A4CF6FF700440F08804432C82AC8929
:101A70004EF6F3100440B088318908437189084359
:101A80000443AC81AC8A4FF6FF400440B089044364
:101A9000AC8201A8FFF7A4F81F48874202D1DDF805
:101AA00010A001E0DDF80CA0A88900F4004040B1CE
:101AB0000AEBCA0000EB0A1031684900B0FBF1F8EC
:101AC00007E00AEBCA0000EB0A1031688900B0FB9E
:101AD000F1F86420B8FBF0F004012009642101FB57
:101AE0001089A88900F4004040B1322000EBC90001
:101AF000B0FBF1F000F00700044308E0322000EBF7
:101B000009106421B0FBF1F000F00F0004432C81B8
:101B100006B0BDE8F0870000003801400146888823
:101B2000C0F308007047C1F308028280704700BF0D
:101B3000FEE700BF7047000010B56FF00400FFF72C
:101B40004BF90A4800680A49B0FBF1F009490870EE
:101B50000846007800EB4001C1EBC0104FF6FF7162
:101B600001EAC0000449088010BD000010000020F8
:101B700000127A00380000203A0000200146114A85
:101B800012884A434FF0E0235A6100229A611A46B4
:101B9000126942F001021A6100BF4FF0E0221069A1
:101BA00000F001021AB100F48032002AF5D04FF0A3
:101BB000E022126922F001024FF0E0231A610022B4
:101BC0009A6170473A00002010B500240748B0F928
:101BD000000001F02DF80649086008460168054834
:101BE00000F00AF80446204610BD00005C0000200A
:101BF00054000020780200202DE9F04704460D46ED
:101C00002946206801F05EF9A060A168E06900F053
:101C1000A3FEE061D4E9020101F054F98046A16914
:101C200001F052F80646E169606901F04DF880461E
:101C3000A168206901F048F88146414600F08CFE19
:101C40000746314600F088FE6060A068E06060688A
:101C5000BDE8F087FEF7F5FCFFF76EFFFEF786FCA8
:101C60004FF4E13000F074FB4FF4E13000F0CAFAB9
:101C70004FF4E13000F018FBFEF750FFFEF7BAFD1D
:101C8000632141F61F40FFF7BBFDFEF74DFF9EA20B
:101C900001210846FEF77CFE9DA201210220FEF7ED
:101CA00077FE9CA205210220FEF772FE2AE19A48E7
:101CB00000789A4908709A48007848700020887027
:101CC000084600F037FA9748007897490870974817
:101CD00000784870964800788870084600F05EFAF0
:101CE00002239448B0F9002008210120FEF72EFEBF
:101CF00002239148B0F900200B210120FEF726FEB7
:101D000002238E48B0F900200E210120FEF71EFEAE
:101D100003238B48027819460220FEF717FE0223A0
:101D20008848027808211846FEF710FE04238648EA
:101D3000027801210320FEF709FE844804230621CE
:101D4000C2680320FEF702FE804804230B210269CB
:101D50000320FEF7FBFD7148427802230121042095
:101D6000FEF7F4FD7949086A00F042FF04460423B7
:101D7000224605211846FEF7E9FD7548007800283F
:101D80003CD073480078012820D172480078401C6C
:101D90007049087008460078012803D11E206E495A
:101DA00008702BE06B480078022803D132206A4982
:101DB000087023E067480078032803D1642066494F
:101DC00008701BE032206449087017E06048007812
:101DD000022805D161480078401C604908700DE078
:101DE0005B480078032809D15C48007855490870A1
:101DF000594800785249087000F0D2F851480078EC
:101E000050B90020474908704349087000F0BAF8FB
:101E100000205349086071E04A480078012820D129
:101E2000404908703C4908704E484F4908604F4986
:101E30000860454800780A2860DB1B203B49087091
:101E40000020414908700120494908604FF496700C
:101E5000FFF794FE00204749C1F8880100F092F88E
:101E60004CE038480078022818D12E4908702A49D9
:101E7000087041483C4908603C4908603248007895
:101E800008283BDB01203D4908701B2027490870CA
:101E900000202D49087000F075F82FE029480078DF
:101EA000032809D11F4908701B49087032482E4980
:101EB00008602E49086021E022480078042815D1E6
:101EC00018490870144908702D48274908602749A7
:101ED00008601D480078062810DB1B201349087095
:101EE00000201949087000F04DF807E01548007807
:101EF000052803D10B49087007490870FEF768FAF6
:101F000013490870D3E600004F70656E4D763A00B5
:101F1000733A00006D3A0000440000200A000020DF
:101F20004600002049000020000000204A00002058
:101F30004B0000205C0000205E00002060000020BC
:101F4000050000200600002047000020FC010020C2
:101F500004000020080000200700002009000020E5
:101F6000AC01224200004843380200205802002001
:101F700088812242008022420000A5430300002005
:101F80000000E64310B5002211460448FFF74CFA62
:101F900000220C210148FFF747FA10BD002C014038
:101FA00010B5012200210448FFF73EFA01220C215E
:101FB0000148FFF739FA10BD002C01402DE9FC5F04
:101FC000002001901249B1F9020000F031FE0090AA
:101FD00000F096FC804600220E4B00F093FB064674
:101FE00000220D4B00F08EFB044600220B4B00F04C
:101FF00031FA824600F0FCF9094908600846016898
:10200000084800F047F801900198BDE8FC9F0000E7
:10201000FC01002000408F4000004E400068BA40A4
:1020200050000020580200202DE9FC5F00200190A4
:102030001249B1F9000000F0FBFD009000F060FCD7
:10204000804600220E4B00F05DFB064600220D4B41
:1020500000F058FB044600220B4B00F0FBF98246CF
:1020600000F0C6F90949086008460168084800F010
:1020700011F801900198BDE8FC9F0000FC010020D0
:1020800000408F4000004E400068BA404C000020E5
:10209000380200202DE9F04704460D462946206805
:1020A00000F010FFA0604FF07C51A06800F0D8FD58
:1020B00007D24FF03F41A06800F0D2FE01D20020CD
:1020C000A060A168E06900F047FCE0611749E069A1
:1020D00000F0C6FE02D81548E06106E01449E06948
:1020E00000F0BEFD01D21248E061D4E9020100F027
:1020F000E9FE8046A16900F0E7FD0646E1696069F6
:1021000000F0E2FD8046A168206900F0DDFD814617
:10211000414600F021FC0746314600F01DFC60609E
:10212000A068E0606068BDE8F087000000007A45C4
:1021300000007AC570B50546002400BF0CE05B21A5
:102140001548FFF7F0FC00BF40211348FFF71DFCC6
:102150000128F9D1601CC4B2022CF0DB00240CE091
:10216000295D0D48FFF7DFFC00BF40210A48FFF75B
:102170000CFC0128F9D1601CC4B2032CF0DBB321A4
:102180000548FFF7D0FC00BF40210348FFF7FDFBE7
:102190000128F9D170BD00000044004070B505462B
:1021A000002400BF0CE0B3211548FFF7BCFC00BFC2
:1021B00040211348FFF7E9FB0128F9D1601CC4B2A4
:1021C000022CF0DB00240CE0295D0D48FFF7ABFC8E
:1021D00000BF40210A48FFF7D8FB0128F9D1601C55
:1021E000C4B2032CF0DB5B210548FFF79CFC00BF69
:1021F00040210348FFF7C9FB0128F9D170BD000059
:102200000048004010B586B0044601214804FEF79E
:10221000C7FC01210420FEF7D3FC0420ADF8140014
:1022200003208DF8160018208DF8170005A91C480A
:10223000FEF731F80820ADF8140004208DF81700DF
:1022400005A91748FEF727F826208DF80000002082
:102250008DF801008DF8020001208DF8030068461A
:10226000FEF7F6F901940020ADF80800ADF80A0079
:10227000ADF80C00ADF810000C20ADF80E0001A96F
:102280000848FFF7DFFB012240F225510548FFF720
:10229000B3FB01210348FFF76CFB06B010BD000043
:1022A000000801400044004010B586B004460121FA
:1022B0008804FEF775FC01210820FEF781FC4FF42D
:1022C0008060ADF8140003208DF8160018208DF8FA
:1022D000170005A91C48FDF7DEFF4FF40060ADF8BC
:1022E000140004208DF8170005A91748FDF7D3FF47
:1022F00027208DF8000003208DF801008DF80200E2
:1023000001208DF803006846FEF7A2F90194002031
:10231000ADF80800ADF80A00ADF80C00ADF81000FB
:102320000C20ADF80E0001A90848FFF78BFB012235
:1023300040F225510548FFF75FFB01210348FFF7F5
:1023400018FB06B010BD0000000C01400048004022
:1023500010B586B00446012144F20400FEF730FCBB
:102360004FF40070ADF8140003208DF8160018200B
:102370008DF8170005A91C48FDF78DFF4FF480600C
:10238000ADF8140004208DF8170005A91648FDF7D4
:1023900082FF25208DF8000003208DF801008DF8C4
:1023A000020001208DF803006846FEF751F9019400
:1023B0000020ADF80800ADF80A00ADF80C00ADF84B
:1023C00010000C20ADF80E0001A90848FFF73AFBF9
:1023D000012240F225510548FFF70EFB0121034879
:1023E000FFF7C7FA06B010BD0008014000380140F1
:1023F00021F00042A2F16052B2F5801F01F00043CB
:1024000028BFD2F17F6C0BD95FEA001C43EAC202FD
:1024100042EB507018BF704728BF20F00100704792
:10242000B2F5801FBCBF184670474FEA410C1CF53F
:10243000001F02D2084600F00EBD70B500F00CFA85
:1024400000000089FFF7F6BF4FF00040A0F58000C4
:10245000704700002DE9C04130B4DFF8A0C23CEA6B
:10246000111418BF3CEA131400F0EC8081EA030554
:102470001CEA111444EAD57418BF1CEA131500F0C5
:10248000C780A4EB05044FF0004545EAC12145EAA9
:10249000C32341EA505143EA525304F17F749942F5
:1024A00004F500344FEAC0204FEAC22208BF904230
:1024B00000F09C804FEA13650FF24016765D4FEAFC
:1024C000134506FB05F7C7F1807706FB07F74FEAD0
:1024D000D737A7FB03687642C8F58038A7FB06CE3E
:1024E00038BFA8F1010807FB08E64FF0000EA6FB75
:1024F000028CE6FB03CEDCF1000CCEF1004E38BFBF
:10250000AEF1010EA6FB0C584FF000074FF000058E
:10251000E6FB0E87A1FB08C6A0FB07CE16EB0E0656
:1025200045F10005E1FB076515F1E04E7EBFA4F51E
:1025300080345FEA46066D4116F1800745F10005DB
:102540004FEA17274FEA066647EA0567A6F1DE4617
:10255000B6F1805F4FEA15251FD9384624F0010CEB
:1025600005EBC471BCF1FE6F01EB0C1102D8F0BC9D
:10257000BDE8008124425CBF01F5801E9EEAC47F55
:1025800002D4F0BCBDE80081244238D4F0BCA1F1F3
:10259000C041BDE8004100F0ADB94FEAD22242EAA5
:1025A00043524FEAD323A7FB02864FEAD02040EAEA
:1025B000415007FB03661EEA0E0F4FEAD12105FBCF
:1025C000026658BFA6EB0056B6EB00564FEA520E15
:1025D0004EEAC37E18EB0E0E56EB530EBDD518EB2C
:1025E00002085E417F1C55F10005B6E74FF48015E7
:1025F0004FF000074FF000064FF00008ADE7F0BCC9
:102600004FF0000001F1C04101F00041BDE8008140
:1026100011EA0C1F0CEA131500D00CE013EA0C1F92
:1026200000F025804FF00000F0BC81EA030101F0CA
:102630000041BDE80081F0BCBDE8004181EA030132
:1026400000F058B9F0BCBDE8004170B500F004F9E5
:10265000097EFC3E00F007B881EA03014FF000005C
:1026600001F00041704781EA030100F043B9F0BC7A
:10267000BDE800414FF0000021497047FFFDFBF924
:10268000F7F5F4F2F0EEEDEBE9E8E6E4E3E1E0DEA5
:10269000DDDBDAD8D7D5D4D3D1D0CFCDCCCBCAC817
:1026A000C7C6C5C4C2C1C0BFBEBDBCBBBAB9B8B73E
:1026B000B6B5B4B3B2B1B0AFAEADACABAAA9A8A831
:1026C000A7A6A5A4A3A3A2A1A09F9F9E9D9C9C9BFF
:1026D0009A999998979796959594939392919190AA
:1026E0008F8F8E8E8D8C8C8B8B8A8989888887873B
:1026F0008685858484838382828181800000FF07B0
:102700000000F87FDFF848C170B51CEA111E1EBF3B
:102710001CEA13159EEA0C0F95EA0C0F00F06F806F
:1027200081EA030423EA4C134EEAD47E21EA4C11D9
:1027300041F4801143F48013AE44A1FB024CA0FB92
:102740000365AEF17F7E361955EB0C05A1FB034CFA
:102750004CF10003A0FB021C16EB0C06654153F183
:102760000003094218BF46F0010613F4007F0BD1A5
:102770004FEA03314FEA0530340341EA155140EA8C
:1027800016506FF003020AE04FEAC3214FEAC5205A
:10279000F40241EA555140EA56506FF0020202EB52
:1027A0002E4201EB025585EACE710AD05FEA440C55
:1027B00018BF24F0004450F1000041F1000120EA6C
:1027C000D47040F2FE7C624500D270BDA84214BFB6
:1027D0004FF080444FF04044002E08BF0024BEF16B
:1027E000806FA8BFA1F1C041BDE8704080F2828037
:1027F0004FF0000001F1C04101F0004170479EEA36
:102800000C0F0CEA131518BF95EA0C0F06D04FF009
:10281000000081EA030E0EF0004170BD00F01CF8CC
:102820008900013E00F007B800F009B84FEA430CF8
:102830005FEA5C5C08D081EA030100F05BB84FEA14
:10284000410C5FEA5C5CF6D14FF000000149704733
:102850000000FF070000F87F0EF1020E2EF0030EBD
:102860005EF8046B364205D4012A43EB030515F5E7
:10287000001F12D8012841EB010C1CF5001F0CD8D9
:102880000ED14FEAD17C15F5001F0CEB4C0C0CF16E
:10289000020C08BF4CEBD37C04E04FF0080C01E0C5
:1028A0004FEAD37C0CEB4C0526FA05F606F007063A
:1028B000B6F1040C06D20EEB860CBDE870404CF06D
:1028C000010C6047DFE80CF0090B02024FF00041F9
:1028D0004FF00000A1F5002170BD194610460128F7
:1028E00051EB010418BFD4F5001484BF002001F09F
:1028F000004170BD0808A0F500114FEA3101704792
:1029000043004FEAD30C4FEA3C0C43401FBF400743
:102910000CF1605113F0FE4F70471CF0006F03D1B3
:1029200000200CF0004170470CF0004343EA507067
:1029300010B540EACC0000F048FA00BF0000009259
:102940004FEA0001FFF7D6BF4FF000414FF0000003
:10295000A1F500217047000090EA010F48BF81F007
:10296000004100F1B682421A3CBF801A89184FEA32
:10297000D0524FF07F4C1CEA410FA2EBD15318BF4D
:102980009CEA026F00F03B804FF0004C4CEA0020C4
:102990004CEA012121FA03FC10EB0C0C1ED202F1CF
:1029A000FF325FEA1C2040EBC25038BF70471CF07A
:1029B0007F0F4FEA400C18BFBCF17F4F38BF704704
:1029C000C3F12003994008BF20F00100BCF17F4F04
:1029D00038BF7047A0F1C04000F03DBA4FEA3C005C
:1029E000000A40EBC25028BF1CF0FF0F4FEA400C1A
:1029F000E6D018BFBCF17F4F38BF7047EAE79CEACA
:102A0000026F05D010EA5C0F08BF00F0004070476D
:102A100010B500F0DAF900BF64FBBE3E401058BFAD
:102A2000C0F14040491058BFC1F140418142EFF32D
:102A3000008070474FF47F0C1CEAD0121EBF1CEAC6
:102A4000D11392EA0C0F93EA0C0F00F0858090EA04
:102A5000010F48BF42F4807240F4000C41F40000C2
:102A60002CF07F4120F07F4000B58142A2EB0302B1
:102A70000FF2081CACEB504EC0F100009EF800E0D5
:102A80004FEA4E0E00FB0EFC38BF49004FEA2C1CEB
:102A900002F5FA020CFB0EF34FEACE1E4FEA112CA0
:102AA0004FEAC1210EEB635E42EB22420EFB0CFCAF
:102AB0004FEA1C5300FB03114FEA112C4FEA01317E
:102AC0000EFB0CFC4FEADC4C00FB0C11C14228BF92
:102AD00009184CEB03335DF804EB10EB410143EBB9
:102AE000C250B2F57C0F38BF704729D512F0F00FF5
:102AF0001CBF00F1C04000F000407047008182839D
:102B00008485868788898B8C8D8E8F9192939596FC
:102B100097999A9C9D9FA0A2A3A5A7A8AAACAEB086
:102B2000B2B3B5B7B9BCBEC0C2C5C7C9CCCED1D48B
:102B3000D7D9DCDFE2E6E9ECF0F3F7FAFE000000BB
:102B40004FEA400C0CF1807CBCF17E4F28BF7047EF
:102B5000B0F1C04000F07FB990EA010F0CEAD11348
:102B600048BF42F48072624538BF634507D213F410
:102B70007F0F16D080EA010000F00040704710B5CA
:102B800000F023F9097EFC3E00F005B880EA010060
:102B900000F00040704780EA010000F0004000F0C3
:102BA0005AB912F47F0F04BF0248704780EA01004F
:102BB00000F051B90000C07F41000B0ED3F19E021E
:102BC00008D950F400034FEA032323FA02F048BF68
:102BD0004042704710B500F0F8F800BF49922480D9
:102BE000002070476FF0004282EA2000704700002A
:102BF000C10DD1F19E0206DB4FEA002343F00043F2
:102C000023FA02F07047004207D54FEA4001B1F1C4
:102C1000FE4F02D24FF00000704710B500F0D5F81B
:102C200049922480002070476FEA2000704700001E
:102C300010F0004148BF4042B0FA80F310FA03F2AE
:102C4000C3F19D030BD051EAC35101EB122053068F
:102C500038BF704700F1010008BF20F00100704745
:102C600050EA010C00F113801CF5000F58BFBCF5B1
:102C7000000F01D48842704707D710F5000F58BFE6
:102C800011F5000F15D488427047894270471CF532
:102C9000000F04D5BCF5000FF7D5814270474FF007
:102CA000807C1CEB400F38BF1CEB410F01D28142EE
:102CB000704710B500F089F8922449004FF0005099
:102CC0004FF08051FFF7AABE4FF47F0C1CEAD012E0
:102CD0001EBF1CEAD11392EA0C0F93EA0C0F00F00E
:102CE000478090EA010F48BF42F480724FF0004CD9
:102CF0004CEA00204CEA012102EB0302A0FB011385
:102D0000A2F50002002918BF43F001035B0028BFB1
:102D10004FEA330342EB22425FEA132C4CEBC250E2
:102D20002EBFBCEB436FB2F57C0F70474FEA036CCC
:102D3000BCF1004F08BF20F00100B2F57C0F38BF96
:102D400070470BD582F0FF0212F5803FC8BF704775
:102D500000F1C040D8BF00F00040704700F5000C03
:102D60005FEA4C0C48BF7047B0F1C04000F073B848
:102D700090EA010F0CEAD11348BF42F48072624519
:102D800038BF634504D280EA010000F0004070477C
:102D900010B500F01AF800BF8900013E00F007B836
:102DA00000F009B85FEA410C5FEA1C6C08D080EAC9
:102DB000010000F050B85FEA400C5FEA1C6CF6D1ED
:102DC0004FF00040A0F5800070470EF1020E2EF08B
:102DD000030E5EF8044B244204D44FEA4102B2F1E0
:102DE0007F4F11D84FEA4003B3F17F4F0CD80ED17B
:102DF0004FEAD07CB2F17F4F0CEB4C0C0CF1020C83
:102E000008BF4CEBD17C04E04FF0080C01E04FEA26
:102E1000D17C0CEB4C0324FA03F404F00704B4F166
:102E2000040C06D20EEB840CBDE810404CF0010CF3
:102E30006047DFE80CF0070802024FF00040A0F501
:102E4000800010BD0846420018BFD2F1807288BFD2
:102E500000F0004010BDFF2141EAD050C00570478E
:102E600051EA000C00F113801CF5000F58BFBCF5AF
:102E7000000F01D48142704707D711F5000F58BFEA
:102E800010F5000F15D481427047894270471CF538
:102E9000000F04D5BCF5000FF7D5884270474FF0FE
:102EA000807C1CEB410F38BF1CEB400F01D28842E5
:102EB000704780EA010081EA000180EA0100FFF723
:102EC000F8BE000090EA010F48BF81F000413FF5D5
:102ED0004AAD421A04D882F00042A0EB020011442D
:102EE0004FEAD0524FF07F4C1CEA410FA2EBD15376
:102EF00018BF9CEA026F4AD04FF0004C4CEA002009
:102F00004CEA012121FA03FCB0EB0C0C0FD412F0B7
:102F1000FE0F36D05FEA4C001DD5001240EBC250C8
:102F200038BF70471CF03F0F18BF70470BE0A2F18D
:102F300001025FEA1C2040EBC25038BF70471CF012
:102F40007F0F18BF7047C3F12003994014BF401E84
:102F500020F00100704780084FEA122308BF704735
:102F6000B0FA80FCA2EB0C02CCF1280C60FA0CF059
:102F700093EA122F04BF00EBC25070474FEAC370B0
:102F80007047130A5FEADC1008BF7047F6E79CEA57
:102F9000026F04D010EA5C0F08BF0020704710B524
:102FA000FFF713FF40DFF63E81F00040704700005E
:102FB0000000000000000000000000000000000011
:102FC00000F8000000000000003330000000001096
:102FD0000C06100C0600000000000000000040C0BD
:102FE0007840C0784000043F04043F0404000070AF
:102FF00088FC08300000001820FF211E0000F008A7
:10300000F000E018000000211C031E211E0000F04B
:103010000888700000001E21232419272110101693
:103020000E00000000000000000000000000000092
:1030300000E0180402000000000718204000000211
:103040000418E00000000040201807000000404085
:1030500080F0804040000202010F010202000000E7
:1030600000F0000000000101011F0101010000004B
:1030700000000000000080B07000000000000000B0
:103080000000000000000001010101010101000039
:1030900000000000000000303000000000000000D0
:1030A000000080601804006018060100000000E0C5
:1030B00010080810E000000F102020100F00001072
:1030C00010F8000000000020203F202000000070C9
:1030D00008080888700000302824222130000030C1
:1030E0000888884830000018202020110E000000B9
:1030F000C02010F8000000070424243F240000F83A
:103100000888880808000019212020110E0000E01E
:10311000108888180000000F112020110E000038C0
:103120000808C83808000000003F000000000070D8
:10313000880808887000001C222121221C0000E061
:1031400010080810E0000000312222110F000000DA
:1031500000C0C0000000000000303000000000008F
:1031600000800000000000008060000000000000FF
:103170008040201008000001020408102000404098
:1031800040404040400004040404040404000008DB
:103190001020408000000020100804020100007090
:1031A00048080808F0000000003036010000C03078
:1031B000C828E810E0000718272423140B0000009B
:1031C000C038E0000000203C23020227382008F825
:1031D000888888700000203F202020110E00C03019
:1031E000080808083800071820202010080008F8F0
:1031F00008080810E000203F202020100F0008F8E9
:103200008888E8081000203F20202320180008F8B4
:103210008888E8081000203F200003000000C0302C
:1032200008080838000007182020221E020008F8AD
:1032300008000008F808203F210101213F20000874
:1032400008F8080800000020203F202000000000AF
:103250000808F8080800C08080807F00000008F897
:1032600088C028180800203F20012638200008F8D0
:10327000080000000000203F20202020300008F837
:10328000F800F8F80800203F003F003F200008F851
:1032900030C00008F808203F200007183F00E01069
:1032A00008080810E0000F10202020100F0008F878
:1032B00008080808F000203F210101010000E0108B
:1032C00008080810E0000F18242438504F0008F8B0
:1032D000888888887000203F2000030C3020007010
:1032E0008808080838000038202121221C0018080E
:1032F00008F8080818000000203F2000000008F827
:1033000008000008F808001F202020201F0008786F
:10331000880000C83808000007380E010000F808CF
:1033200000F80008F800033C0700073C03000818F9
:1033300068808068180820302C03032C302008385F
:10334000C800C83808000000203F20000000100816
:103350000808C8380800203826212020180000005E
:1033600000FE020202000000007F40404000000C0E
:1033700030C000000000000000010638C00000025C
:103380000202FE000000004040407F0000000000FC
:10339000040202020400000000000000000000001F
:1033A000000000000000808080808080808000021B
:1033B0000204000000000000000000000000000007
:1033C0008080808000000019242222223F2008F8FB
:1033D000008080000000003F112020110E0000003E
:1033E000008080800000000E1120202011000000CD
:1033F00000808088F800000E112020103F2000007F
:10340000808080800000001F222222221300008082
:1034100080F0888888180020203F202000000000CD
:10342000808080808000006B94949493600008F802
:10343000008080800000203F210000203F2000808D
:103440009898000000000020203F2020000000008D
:1034500000809898000000C08080807F000008F8FD
:10346000000080808000203F24022D3020000008D2
:1034700008F8000000000020203F2020000080808D
:10348000808080808000203F20003F20003F80809F
:10349000008080800000203F210000203F200000AD
:1034A000808080800000001F202020201F0080805E
:1034B00000808000000080FFA12020110E0000008D
:1034C000008080808000000E112020A0FF8080807E
:1034D00080008080800020203F212000010000002B
:1034E0008080808080000033242424241900008000
:1034F00080E0808000000000001F2020000080800D
:10350000000000808000001F202020103F208080CD
:1035100080000080808000010E300806010080805D
:103520000080008080800F300C030C300F00008082
:103530008000808080000020312E0E3120008080AD
:1035400080000080808080818E70180601000080DD
:103550008080808080000021302C222130000000FB
:103560000000807C020200000000003F404000009C
:103570000000FF00000000000000FF00000000024B
:10358000027C800000000040403F00000000000678
:10359000010102020404000000000000000000001D
:1035A000C0350008000000206C0000006C0100081D
:1035B0002C3600086C000020A408000088010008D8
:1035C00000000000000000000000000000000000FB
:1035D00000A24A04000000000000000001020304F1
:1035E00006070809000000000102030401020304A9
:1035F0000607080902040608000000000000000099
:1036000000000000000000000000000000000000BA
:1036100000000000000000000000000000000000AA
:0C3620000000000000000000000000009E
:0400000508000131BD
:00000001FF
